:020000040000fa
:10000000f8ff03202d8b00000f6d00000b7e000019
:10001000738800001b8a00003b8d00000000000078
:10002000000000000000000000000000af570000ca
:100030003784000000000000af570000af570000f9
:10004000af570000af570000af570000af57000098
:10005000af570000af570000af570000af57000088
:10006000af570000af570000af570000af57000078
:10007000af570000af570000af570000af57000068
:10008000af570000af570000af570000af57000058
:10009000af570000af570000af570000af57000048
:1000a000af570000af570000af570000af57000038
:1000b000af570000af570000af570000af57000028
:1000c000af570000af570000af570000af57000018
:1000d000af570000af570000af570000af57000008
:1000e000af570000af570000000000000000000004
:1000f00000000000af570000af570000af570000ee
:10010000af570000af570000af570000af570000d7
:10011000af570000af570000af570000af570000c7
:10012000af570000af570000af570000af570000b7
:10013000af570000af570000af570000af570000a7
:10014000af570000af570000af570000af57000097
:10015000af570000af570000af570000af57000087
:10016000af570000af570000af570000af57000077
:10017000af570000af570000af570000af57000067
:10018000af570000af570000af570000af57000057
:10019000af570000af570000af570000af57000047
:1001a000af570000af570000af570000af57000037
:1001b000af570000af570000af570000af57000027
:1001c000af570000af570000af570000af57000017
:1001d000af570000af570000af570000af57000007
:1001e000af570000af570000af57000051ac000000
:1001f000af570000af570000af570000af570000e7
:10020000af570000af570000af570000af570000d6
:10021000af570000af570000af570000af570000c6
:10022000af570000af570000af570000af570000b6
:10023000af570000af570000af570000af570000a6
:10024000af570000af570000af570000af57000096
:10025000af570000af570000af570000af57000086
:04026000c97e000053
:020000040000fa
:10026400f8b500bff8bc08bc9e4670479da30000cb
:10027400f8b500bff8bc08bc9e46704779a30000df
:020000040000fa
:08028400443b000001000000f2
:020000040000fa
:10028c002de9f04385b00446002303934ff44475e5
:10029c0005fb00f5ba4e2e4496f80c33012b1ed0fc
:1002ac00b74a4ff4447303fb0423d3f8ac7293f8ae
:1002bc00bf32102b01f21f83dfe813f02300540030
:1002cc0066009b00d9083f0a790ab80ae20a0a0bb1
:1002dc004c0b800bab0bdb0bfa0b3c0c1500002210
:1002ec0086f80c23dce7d6f8ac52002d01f07684ae
:1002fc00a34b4ff4447707fb04374ff0010801f090
:10030c005bbc9f4a4ff4447303fb04239b789bb95b
:10031c004ff4447303fb04239b689b6b98470028a2
:10032c0001f0e982964a4ff4447303fb0423012243
:10033c0083f8bf2201f0dfba914e05f11001314470
:10034c00204609f038f94ff4447505fb0465ab6899
:10035c005b6898478b4bc5f89432032385f8bf3202
:10036c0001f0c9ba88492944fa2009f0d5fd0028c2
:10037c0041f0c182824a4ff4447303fb04230222ee
:10038c0083f8bf2201f0b7ba7d4a4ff4447303fbe4
:10039c000423d3f8c8020af0fbff002801f0ab825b
:1003ac00774a4ff4447303fb04239b689b6b984779
:1003bc0048b9734a4ff4447303fb0423002283f8b7
:1003cc00bf2201f098ba6e4e05f11001314420465f
:1003dc0009f0f1f84ff4447505fb0465ab685b68f4
:1003ec009847684bc5f89432032385f8bf3201f067
:1003fc0082ba00230293624a4ff4447303fb042332
:10040c0093f8c032212b00f2bf87dfe813f02200f3
:10041c005d007d009300bf00e9005e0187017e0254
:10042c00be0257031205350564050b0425045a0456
:10043c0081049e04cd048905da052306410698063d
:10044c00ff06440767079407b007b007f501690278
:10045c0011034b4a4ff4447303fb0423d3f8942247
:10046c00484b9a4215d0464a4ff4447303fb04237d
:10047c009b689b6843489847002800f02086404ab8
:10048c004ff4447303fb04233e4ac3f8942200f058
:10049c0016be3b4a4ff4447303fb04239b78012b99
:1004ac0009d0374a4ff4447303fb0423032283f827
:1004bc00c02200f004be03f20f3303fb042301221d
:1004cc0083f8c02200f0fbbd2d4905f532724ff4c4
:1004dc00447303fb04131144586809f01dfd48b91b
:1004ec00274a4ff4447303fb0423022283f8c022ef
:1004fc0000f0e5bd224a4ff4447303fb04231e2293
:10050c0083f8c02200f0dbbd1d4a4ff4447303fb9b
:10051c000423d3f8c8020af03bff002800f0cf8573
:10052c00174a4ff4447303fb0423032283f8c022bd
:10053c0000f0c5bd124f05f2c3233b4400930023ca
:10054c001a461946304606f08ff94ff4447303fbf4
:10055c00047393f8c232032b40f0b18507f5327166
:10056c002944022009f0d8fc002840f0a8854ff45b
:10057c00447303fb0473042283f8c02200f09fbd74
:10058c0000100120801a0600c8120120d24a4ff434
:10059c00447303fb0423d3f8c8020af0f9fe0028c5
:1005ac0000f08d85cc4a4ff4447303fb042393f87d
:1005bc00d03243b903f5447303fb0423052283f8bb
:1005cc00c02200f07cbdc44a4ff4447303fb0423e7
:1005dc001f2283f8c0221422a3f8dc2200f06fbd86
:1005ec00bd4f05f2c3233b44009308234ff4d5724f
:1005fc001946304606f038f94ff4447303fb047384
:10060c0093f8c232032b40f05a8503f20d3303fbef
:10061c000473062183f8c012072183f8c11200214c
:10062c0083f8851205f5337139444ff4fa6009f0fb
:10063c0073fc012820d0a84a4ff4447303fb042315
:10064c0093f8bd325bbb03f5447303fb04239b6837
:10065c001b6a02a900209847029bc3f30803b3f559
:10066c00d57f12d09c4a4ff4447303fb04231e2203
:10067c0083f8c02200f023bd4ff4447303fb0473d2
:10068c001e2283f8c02200f01abd934a03f5b373ff
:10069c0003fb0423012283f88c2200f010bd022bf3
:1006ac0009d08d4a4ff4447303fb04231e2283f8b4
:1006bc00c02200f004bd884a03f20e3303fb04236e
:1006cc00002283f88c2200f0fabc834b4ff4447761
:1006dc0007fb0437b7f8822205f2c3210b440093c1
:1006ec00012312043721304606f0bef897f8c232c7
:1006fc00032b40f0e48497f8bd322bb997f8c12254
:10070c0087f8c02200f0dbbc734a4ff4447303fb40
:10071c0004231e2283f8c02200f0d1bc6e4b4ff490
:10072c00447707fb043797f88c1297f8852212044c
:10073c0005f2c32003440093042342ea8172292169
:10074c00304606f091f897f8c232032b40f0b7848c
:10075c00d7f8cc020af01cfe20b11e2287f8c0226a
:10076c0000f0adbc5c4a4ff4447303fb042393f8d4
:10077c00bd32bbbb03f5447303fb04239b681b6aac
:10078c0002a900209847029b13f4701f09d1524a0a
:10079c004ff4447303fb04231e2283f8c02200f0a1
:1007ac008ebc002b0cdb4c4a4ff4447303fb04232c
:1007bc003c2283f88522062283f8c02200f07fbcfd
:1007cc00454a4ff4447606fb0426c3f3807386f83f
:1007dc008632d6f8cc0209f041ff082386f8c032e5
:1007ec0000f06dbc3c4a4ff4447303fb04231e22ff
:1007fc0083f8c02200f063bc374f05f2c3233b449f
:10080c0000930423354a0121304606f02df84ff4ad
:10081c00447303fb047393f8c232032b40f04f84f0
:10082c0003f20d3303fb047393f8bd32002b49d153
:10083c0003f5447303fb04739b681b6a02a9002035
:10084c009847029b002b11db234a4ff4447303fba4
:10085c000423b3f8dc32dbb91f4a4ff4447303fbb7
:10086c0004231e2283f8c02200f029bc4ff44472ea
:10087c0002fb047203f0c043b3f1804f14bf00239a
:10088c00012382f88632082382f8c03200f017bcac
:10089c0011464ff4447202fb0412013ba2f8dc3205
:1008ac0005f532731944322009f036fb002840f06c
:1008bc000684094a4ff4447303fb0423202283f873
:1008cc00c022fce3044a4ff4447303fb04231e22ae
:1008dc0083f8c022f3e300bf001001200000384071
:1008ec00cc4a4ff4447303fb0423d3f8c8020af038
:1008fc004ffd002800f0e383c64a4ff4447303fb1a
:10090c0004231f2283f8c022d9e3c24f05f2c3236c
:10091c003b440093032300220221304605f0a4ff40
:10092c004ff4447303fb047393f8c232032b40f06f
:10093c00c68303f20d3303fb047393f8bd32dbb9aa
:10094c00394605f110034ff4447606fb0476b26881
:10095c00126a19440420904796f8d0321bb9092228
:10096c0086f8c022abe3ab4a4ff4447303fb042379
:10097c00212283f8c022a2e3a64a4ff4447303fb5e
:10098c0004231e2283f8c02299e3a24f05f2c3234d
:10099c003b440093072300220321304605f064fffb
:1009ac004ff4447303fb047393f8c232032b40f0ef
:1009bc00868303f20d3303fb047393f8bd3273bbd0
:1009cc0003f5447303fb04739b681b6a02a90020a4
:1009dc009847029b13f4604f07d04ff4447303fb0a
:1009ec0004731e2283f8c02269e31b0c89494ff45f
:1009fc00447202fb0412a2f882323bb903f5447331
:100a0c0003fb0413092283f8c02258e3814a4ff4f4
:100a1c00447303fb04230a2283f8c0224fe37d4a6c
:100a2c004ff4447303fb04231e2283f8c02246e3d5
:100a3c00784f05f2c3233b44009301234ff400325b
:100a4c000321304605f010ff4ff4447303fb04738d
:100a5c0093f8c232032b40f0328303f20d3303fbc5
:100a6c00047393f8bd3203bb03f5447303fb0473a7
:100a7c009b681b6a02a900209847029b13f4590f2c
:100a8c0007d04ff4447303fb04731e2283f8c02277
:100a9c0015e3604a4ff4447303fb04230222a3f8ca
:100aac0082220a2283f8c02209e35a4a4ff4447383
:100abc0003fb04231e2283f8c02200e3554b4ff4a2
:100acc00447707fb0437b7f8822205f2c3210b44a5
:100adc000093032312040921304605f0c5fe97f854
:100aec00c232032b40f0eb824a4a97f8bd32002bfe
:100afc0040f0868005f1200616444ff4447707fb3e
:100b0c000427bb681b6a31460420984797f8d032fb
:100b1c00002b3ad1404ac7f89822b37b9b09012b92
:100b2c0025d0337a9b0203f440607279520002f0b4
:100b3c000602384b4ff4447101fb0431f779b37959
:100b4c009b0943ea870303430133307942ead0120d
:100b5c0002329340727a02f00f02a2f109000122d4
:100b6c00824092b202fb03f3c1f888323fe0f37982
:100b7c001b0403f47c12b079737943ea002313430a
:100b8c0001339b02c7f8883231e0f37a214a4ff4e3
:100b9c00447101fb0421c3f3c20003f007031f4a95
:100bac0052f820201e4850f8233003fb02f30a228f
:100bbc00b3fbf2f3c1f89832f279b3799b0943eaab
:100bcc008203327a920202f4406213430133727947
:100bdc00520002f00602307942ead01202329340ff
:100bec00727a02f00f0293405b0ac1f88832094a0c
:100bfc004ff4447303fb04230e2283f8c0225ee2fd
:100c0c00044a4ff4447303fb04231e2283f8c022ce
:100c1c0055e200bf0010012040787d01b8a3000010
:100c2c0084b00000bd4a4ff4447303fb04239a685c
:100c3c009268d3f898029047002800f04082b74a97
:100c4c004ff4447303fb0423d3f89822c3f8942283
:100c5c000f2283f8c02232e2b04b4ff4447707fbeb
:100c6c000437b7f8822205f2c3210b440093022308
:100c7c0012040721304605f0f7fd97f8c232032b1a
:100c8c0040f01d8297f8bd3293b997f8d03233b942
:100c9c00062287f8c022102287f8c1220fe29f4a51
:100cac004ff4447303fb04230b2283f8c02206e2a7
:100cbc009a4a4ff4447303fb04231e2283f8c02288
:100ccc00fde1964a4ff4447303fb04239b681b6ab3
:100cdc0002a900209847029b13f0007f0bd08f4a8b
:100cec004ff4447303fb0423012283f88e221d224c
:100cfc0083f8c022e3e113f4006f884a4ff4447385
:100d0c0003fb042314bf11221e2283f8c022d6e158
:100d1c00824f4ff4447606fb0476b3689b6a082036
:100d2c009847012286f8c32286f8c422002386f84d
:100d3c00c53205f13003b168d1f834800821f818b8
:100d4c00c047122386f8c032b9e1744f05f2c323b1
:100d5c003b440093012300223321304605f084fdef
:100d6c004ff4447303fb047393f8c232032b40f02b
:100d7c00a68103f20d3303fb0473002283f8c32214
:100d8c0093f8bd323bb903f5447303fb0473132290
:100d9c0083f8c02293e1614a4ff4447303fb0423ac
:100dac001e2283f8c0228ae15c4a4ff4447303fb91
:100dbc00042393f88f32002b00f081814ff444739d
:100dcc0003fb0423b3f8923223f4fb4323f00f0309
:100ddc001b041b0c3bb14ff4447303fb04231e2276
:100dec0083f8c0226be14d4a4ff4447303fb042398
:100dfc0093f8313013f0040f07d04ff4447303fb16
:100e0c00042393f8d232012b08d0444a4ff4447394
:100e1c0003fb0423152283f8c02250e103f20f33a5
:100e2c0003fb0423062283f8c022142283f8c12278
:100e3c0045e1dff8e8804ff4447606fb0486012791
:100e4c0086f8c37286f8c472002086f8c502b368af
:100e5c005b6a9847b3689b6a4ff40070984705f13a
:100e6c008000b3685b6b3a464ff40071404498477e
:100e7c000c2386f8c03222e1284f05f2c3233b44f1
:100e8c000093012300220821304605f0edfc4ff4bd
:100e9c00447303fb047393f8c232032b40f00f81ad
:100eac0003f20d3303fb0473002283f8c32293f87f
:100ebc00bd323bb903f5447303fb04730d2283f875
:100ecc00c022fce0154a4ff4447303fb04231e229a
:100edc0083f8c022f3e0114a4ff4447303fb04235c
:100eec0093f88f32002b00f0ea8013464ff44472d3
:100efc0002fb043292f8571192f856311b0443ea64
:100f0c00016392f854110b4392f8551143ea0123f3
:100f1c00c2f88832142382f8c032d0e000100120cd
:100f2c00b74a4ff4447303fb042393f8d0325bbbf2
:100f3c0002f2c3232b4400930123022206213046e4
:100f4c0005f092fcae4a4ff4447303fb042393f870
:100f5c00c232032b40f0b38003f20d3303fb0423a6
:100f6c0093f8bd3223bb4ff4447606fb0426b368da
:100f7c00db6a96f8d202984796f8d23286f881321c
:100f8c00152386f8c0329ae09d4b4ff4447202fb55
:100f9c00043292f8d21205f2c322134400930223b6
:100fac00984a42ea01220621304605f05dfcc9e769
:100fbc00934a4ff4447303fb04231e2283f8c0228c
:100fcc007de08f4a4ff4447303fb042393f8d03233
:100fdc0023bb03f5447303fb042393f8303013f065
:100fec000f0f07d04ff4447303fb042393f8d13253
:100ffc00012b08d0824a4ff4447303fb04231b22b9
:10100c0083f8c0225be003f20f3303fb04230022be
:10101c0083f88422162283f8c02250e0012be9d1f8
:10102c00774a03f20f3303fb042393f8443113f094
:10103c00010fdfd04ff4447303fb042393f8d13238
:10104c00012bd7d103f20f3303fb0423192283f8ae
:10105c00c02234e0dff8a8814ff4447707fb048703
:10106c00bb689b6a40209847012287f8c32287f807
:10107c00c422002387f8c53205f14003b968d1f8c2
:10108c003490402108eb0300c847172387f8c0327f
:10109c005b4b4ff4447707fb043797f8841205f247
:1010ac00c322134400930123574a42eac17206211a
:1010bc00304605f0d9fb97f8c232032b2cd0504a9e
:1010cc004ff4447303fb042393f8c0321d2b00f040
:1010dc0064811e2b40f00f84494a4ff4447303fb88
:1010ec0004239b78012b00f0b581002b40f0038486
:1010fc00434a4ff4447303fb04239b689b6b984750
:10110c00002840f0ae813e4a4ff4447303fb0423a5
:10111c00002283f8bf22eee3002287f8c32297f85f
:10112c00bd321bb9182287f8c022c8e7344a4ff4e5
:10113c00447303fb04231e2283f8c022bfe7304a0a
:10114c004ff4447303fb042393f88f32002bb6d077
:10115c004ff4447303fb0423b3f8923223f4fb43a0
:10116c0023f00f031b041b0c3bb14ff4447303fb24
:10117c0004231e2283f8c022a1e7214a4ff44473b2
:10118c0003fb042393f88432012b14d01c4a4ff434
:10119c00447303fb042393f84d3013f0020f25d056
:1011ac004ff4447303fb0423012283f88422162298
:1011bc0083f8c02283e703f20f3303fb042393f875
:1011cc00503003f00f03012b08d00d4a4ff4447339
:1011dc0003fb04231d2283f8c02270e703f20f33b4
:1011ec0003fb04231a2283f8c02268e7044a4ff455
:1011fc00447303fb04231d2283f8c0225fe700bf66
:10120c00001001200100b70301ffff00c14f05f2e0
:10121c00c3233b4400930223bf4a0621304605f00a
:10122c0023fb4ff4447303fb047393f8c232032b78
:10123c007ff445af03f20d3303fb047393f8bd3217
:10124c0003bb03f5447303fb04739b689b68b348af
:10125c00984770b14ff4447606fb0476af4bc6f852
:10126c009432b3681b6b012098471b2386f8c0325d
:10127c0025e7a84a4ff4447303fb04231e2283f88a
:10128c00c0221ce7a34a4ff4447303fb04231e2221
:10129c0083f8c02213e79f4a4ff4447303fb0423e3
:1012ac009b689b689e48984778b19a4b4ff444765c
:1012bc0006fb04369a4bc6f89432b3681b6b0120bc
:1012cc0098471b2386f8c032f9e6924a4ff44473d0
:1012dc0003fb04231e2283f8c022f0e68d4f05f297
:1012ec00c3233b44009301234ff40072102130467a
:1012fc0005f0bafa4ff4447303fb047393f8c2324b
:10130c00032b7ff4dcae03f20d3303fb047393f871
:10131c00bd323bb903f5447303fb04731c2283f801
:10132c00c022cce67b4a4ff4447303fb04231e22f9
:10133c0083f8c022c3e6774f05f2c3233b440093e6
:10134c0000231a460721304605f08efa4ff44473f9
:10135c0003fb047393f8c232032b7ff4b0ae03f299
:10136c000d3303fb04731d2283f8c022a7e6694bdf
:10137c004ff4447606fb0436d6f8cc0209f06ef92d
:10138c00002386f8c0329ae6624a4ff4447303fb9a
:10139c000423002283f8c02291e64ff4447303fb2c
:1013ac000423002283f8da2293f8bc3283b1594a21
:1013bc004ff4447303fb04239b68db6b83b19847a6
:1013cc00544a4ff4447303fb042383f88d0207e063
:1013dc00504a4ff4447303fb0423002283f88d22fc
:1013ec004c4a4ff4447303fb0423d3f888124ff494
:1013fc000070c3f8f402c3f8f812c3f8fc02c3f887
:10140c000013c3f80403c3f808130121c3f8e41252
:10141c00c3f8e812c3f8ec1205f53d752a44c3f87d
:10142c00f0229b788b420bd03a4a4ff4447303fb67
:10143c000423012283f8be22042283f8bf225ae23d
:10144c00344a4ff4447303fb04234ff0ff32c3f8c8
:10145c00cc22e9e702f110012944204608f0abf850
:10146c0049e230492944204608f0a5f843e247b147
:10147c00284a4ff4447303fb042393f8c232032b22
:10148c0022d0244a4ff4447303fb04239b78022b91
:10149c0000f0fb80012b00f01e81002b40f02b8212
:1014ac001c4a4ff4447303fb04239b689b6b9847c3
:1014bc00002840f02082174a4ff4447303fb0423a6
:1014cc00102283f8bf2216e24ff4447303fb04236b
:1014dc009b78012b11d00f4a4ff4447303fb042368
:1014ec0093f88e3203b3ff233b724ff4447303fb28
:1014fc0004230e2283f8bf22fde14ff4447505fb53
:10150c000425d5f8cc0209f0a9f84ff0ff33c5f843
:10151c00cc32e0e7001001200101b903007519037a
:10152c0080f0fa0210100120bf4a4ff4447303fb01
:10153c0004239b7883b94ff4447303fb04239b6807
:10154c009b6b984740b9b84a4ff4447303fb042390
:10155c00102283f8bf22cee102233b72b24a4ff431
:10156c00447303fb042393f8863213b97b695b0243
:10157c007b617b7f012b12d0ab4a4ff4447303fb8e
:10158c00042393f88d32002b3ad0ff233b724ff497
:10159c00447303fb04230e2283f8bf22abe1a24a5f
:1015ac004ff4447303fb0423012283f8c422bb6968
:1015bc0093421ad012233b779b4a4ff4447303fb9c
:1015cc000423012283f8c522974a4ff4447303fb8a
:1015dc0004239b78022b34d0934a4ff4447303fbbf
:1015ec000423072283f8bf2285e111233b778e4a1f
:1015fc0003f2ff2303fb0423002283f8c522e3e755
:10160c00894a4ff4447303fb0423002283f8c42259
:10161c00bb69012b0ad019233b77834a4ff44473df
:10162c0003fb0423012283f8c522cde718233b7763
:10163c007d4a03f53e7303fb0423002283f8c52285
:10164c00c2e74ff4447303fb042393f8d032012b0d
:10165c0008d0754a4ff4447303fb0423072283f824
:10166c00bf2248e103f20f3303fb042393f8da3271
:10167c00012beed103f20f3303fb0423002283f87a
:10168c00da22052283f8bf2235e14ff4447303fbc1
:10169c00042393f8d032012b40f02d814ff4447386
:1016ac0003fb042393f8d932002b00f024814ff470
:1016bc00447303fb042393f8da32002b40f01b81b4
:1016cc004ff4447303fb0423012283f8da2205222e
:1016dc0083f8bf220fe1544a4ff4447303fb0423f5
:1016ec00d3f8cc02b0f1ff3f11d009f051fe002825
:1016fc0000f001814c4a4ff4447303fb04234ff078
:10170c00ff32c3f8cc22062283f8bf22f3e005f5a2
:10171c0033714ff4447303fb04231144586808f0ed
:10172c00fbfb012840f0e7803f4a4ff4447303fb76
:10173c0004230e2283f8bf22dde03b4b4ff44477a9
:10174c0007fb0437002287f8c322b7f8820297f808
:10175c00da22d20305f2c3252b440093022342ea7a
:10176c0000420521304605f07ff897f8c232032b72
:10177c0040f0c18097f8bd3283b997f8da32012b6b
:10178c0008d0294a4ff4447303fb0423072283f83f
:10179c00bf22b0e0042287f8bf22ace0224a4ff40b
:1017ac00447303fb0423102283f8bf22a3e01e4bd7
:1017bc004ff4447707fb0437002287f8c322b7f8ad
:1017cc00822205f2c3252b440093012312040d2120
:1017dc00304605f049f897f8c232032b40f08b8065
:1017ec0097f8bd32b3b9bb681b6a03a900209847b0
:1017fc00039bc3f34323032b03d0102287f8bf2290
:10180c0079e0094a4ff4447303fb0423042283f860
:10181c00bf2270e0044a4ff4447303fb04231022ec
:10182c0083f8bf2267e000bf00100120bf4b4ff4cc
:10183c00447707fb0437b7f8822205f2c3252b4403
:10184c000093022312040721304605f00df897f897
:10185c00c232032b4fd197f8bd3243b9bb681b6a18
:10186c0003a900209847082387f8bf3243e0af4a0a
:10187c004ff4447303fb04230e2283f8bf223ae097
:10188c00002f43d0b8690128a84a4ff4447303fbd6
:10189c0004239b685b6a0cbf002080b29847a34b63
:1018ac004ff4447808fb0438d8f808309b6a4ff49e
:1018bc0000709847012388f8c332b969d8f808300a
:1018cc005b6b7a7f490238699847092388f8bf32e5
:1018dc007a69397f954f05f2c3253d440095012364
:1018ec00304604f0c1ff4ff4447303fb047393f8c8
:1018fc00c232032b13d08d4b4ff4447202fb0434d1
:10190c00012384f80c3305b0bde8f083874a4ff40b
:10191c00447303fb04230e2283f8bf22ebe74ff43e
:10192c00447303fb0473002283f8c32293f8bd3283
:10193c003bb94ff4447303fb04730a2283f8bf22b0
:10194c00d9e77a4a4ff4447303fb04230e2283f83d
:10195c00bf22d0e7754a4ff4447303fb042393f87a
:10196c008f32002bc7d04ff4447303fb0423b3f81e
:10197c00923223f4fb4323f00f039bb23bb14ff4a1
:10198c00447303fb04230e2283f8bf22b3e767b131
:10199c00bb69012b654a4ff4447303fb04238cbfd2
:1019ac000b220c2283f8bf22a5e7604a4ff4447344
:1019bc0003fb04230e2283f8bf229ce75b4f05f246
:1019cc00c3253d440095022300220c21304604f02f
:1019dc004bff4ff4447303fb047393f8c232032b95
:1019ec0089d14ff4447303fb047393f8bd323bb9b4
:1019fc004ff4447303fb04730c2283f8bf227ae781
:101a0c004a4a4ff4447303fb04230e2283f8bf228b
:101a1c0071e7464b4ff4447707fb0437b7f8822243
:101a2c0005f2c3252b440093012312040d213046eb
:101a3c0004f01aff97f8c232032b7ff45caf97f8cf
:101a4c00bd326bb9bb681b6a03a900209847039b86
:101a5c0013f4807f3ff44faf0d2287f8bf224ae783
:101a6c00324a4ff4447303fb04230e2283f8bf2243
:101a7c0041e7dff8b88005f2c32545440095002303
:101a8c001a460721304604f0effe4ff4447303fb73
:101a9c00048393f8c232032b7ff42daf00233b72e7
:101aac004ff4447303fb04830f2283f8bf2222e715
:101abc001e4a4ff4447303fb04239b7873b94ff411
:101acc00447505fb0425ab689b6b9847184b187045
:101adc00ff233b720f2385f8bf320ce7134b4ff4f7
:101aec00447808fb0438002288f8c322b8f8822214
:101afc0005f2c3251d440095012312040d21304627
:101b0c0004f0b2fe98f8c232032b7ff4f4aeff233c
:101b1c003b720f2288f8bf2298f8bd32002b3ff49d
:101b2c00eaae034b00221a70e5e600bf001001205c
:101b3c00ec1e0120b7b17968c8b22e4b4ff4447239
:101b4c0002fb0432d2f8b83203eb0013da6891428c
:101b5c0014d0d6f8ac322bb11a6ac6f8ac220022db
:101b6c001a621a70244b1b78a3b1224a4ff44473a7
:101b7c0003fb0423042283f8bf22bce65d68002d1e
:101b8c00e7d097f908009a68f968003018bf01206f
:101b9c00a847dee7184b01221a70164a4ff444731b
:101bac0003fb0423102283f8bf22a4e600232b623c
:101bbc002b70d6f8ac528db12b6ac6f8ac322a79a0
:101bcc00d7f8b83203eb0213d3f80490b9f1000f35
:101bdc00ecd09a68e9684046c847e7e7054a4ff4f5
:101bec00447303fb0423002283f8be2283f8bf2234
:0c1bfc0081e600bf00100120ec1e01205b
:020000040000fa
:101c08002de9f04f97b011900d461746009311a893
:101c180007f030fd0028c0f29a83b54b53f8203006
:101c28000bb100221a70b34b13f81020019203eb8a
:101c3800400393f80190b04b002d08bf1d46104695
:101c480009f0d6fc10f0010f40f0838310f0040f68
:101c580040f084836b681593002b5dd0159a531e52
:101c6800b3f5004f62d30123159395f8018008f16d
:101c7800ff33dbb2022b28bf4ff00108ae68731e9a
:101c8800b3f5004f55d206f00f03002b18bf4ff4e1
:101c98000076ec68b4f1807f4ed8631e2340002b99
:101ca80018bf0024009bb3f5007fc0f05983002fb4
:101cb80000f058832b78029300231493b9f1000f96
:101cc8003cd0012300223946019808f0e9ff00289a
:101cd80040f04a8397f8ff2197f8fe3143ea022340
:101ce8001bb2864a934240f0418307eb091505f57c
:101cf800d775b9f1040f00f23b832b79002b00f064
:101d0800398305f1080009f081fb039005f10c0007
:101d180009f07cfb149027e015aa0321019808f02c
:101d2800f8fc00289ad0012315939ee71a429ad10d
:101d38009be74ff40076ace70024b3e714aa01212f
:101d4800019808f0e6fc002840f01683029b13f087
:101d5800080f07d1149b3f2b60d93f3b14933f23b7
:101d6800039301e000230393149b7f2b40f2068327
:101d7800b4f5813f34bf640a8024029b13f0020249
:101d88000a924ed003f00103002b0cbf0323022359
:101d98000893c34609f0bff81090ddf850a04fea49
:101da8001a3cc6f31613069303994a1c0c92134463
:101db8000593159b03f1ff3e5b4204934fea5a4398
:101dc8000d9301f120030b93cdf838800f96089ef0
:101dd8000997032e00f0e882002c42d02546bafb72
:101de800f5f340f6f572934250d902335b0003f2e3
:101df800ff13590a059b01fb0b320eeb02030498f3
:101e080003409b1ab3fbfbf00bfb1030002844d0b7
:101e1800013b039802300790022041e0002303931e
:101e2800a2e7029b13f0010f00f0aa820223089395
:101e3800afe72c46cde7324b9a4510d9314b9a1c67
:101e480002252b460d99099f8b4206d86d0032f862
:101e5800023f002bf8d10997aae20997a8e20125c9
:101e6800a6e2baf5805f0fd3274b9a1c02250423fc
:101e7800099f634506d86d0032f8023f002bf8d160
:101e88000997ace70997aae70125a8e703eb4303fd
:101e980001335b0803330126a9e70c98079001205a
:101ea800b3fbfbf30b440699039fd21b02eb05120d
:101eb8009245c0f069824218aaeb02020bfb13227a
:101ec800b2fbf5f2032e21d0022e3cd14ff6f57865
:101ed80042452ad9002c40f065826d00402da8d9d2
:101ee8000a9b002b40f06082802d1cd82c4670e79e
:101ef8004c1c012088010020e8b5000055aaffff0e
:101f0800ffff0100d8b50000c8b500004ff6f5780e
:101f1800424518d8002c40f03982012d01d96c08af
:101f280057e70e2316e20e2314e240f6f577ba427d
:101f380000f2ed80002c40f02b826c00802c7ff6a4
:101f480048af0e2306e2ddf8388005910446049375
:101f5800334608960f9e0692099f012b40f0fa809f
:101f680040f6f5739a4200f215824ff40072002190
:101f7800384609f055fbd34b03cb386079601a8893
:101f88009b783a81bb720023fb7202233b737d73fb
:101f9800bc73c4f30723fb7387f810807e74c6f301
:101fa8000726be74baf5803f80f0f28087f813a048
:101fb800caf307233b75009b4fea5328109b5344f1
:101fc8009a46f8237b753f233b7600237b76ff22d6
:101fd800ba76fb76039907f11c0009f0e1fa089b31
:101fe800032b00f0db80514607f1270009f0d8faef
:101ff800049bbb75c3f30723fb75802387f8243044
:10200800292387f8263007f12b06af4c0fccc7f8e9
:102018002b007160b260f3602288a3783282b374b7
:10202800552387f8fe31aa2387f8ff310123039a45
:102038003946019808f01afd002840f0ad81009b50
:1020480023f4ff7222f001020021384609f0e8fa71
:10205800bbf1000f00f0c981089b012b9b4b18bff7
:102068006ff0070300934ff0000a0395079ecdf821
:102078001890089b032b00f013810099384609f04b
:102088008ffa049d4ff000092c46454528bf444669
:10209800234632463946019808f0e8fc002840f00b
:1020a8007d814ff400724946384609f0b9fa264452
:1020b8002d1be9d10af1010ad345dad8039d079609
:1020c800ddf81890059b089a032a08bf2b461d4681
:1020d800079e2c46454528bf444623463246394686
:1020e800019808f0c3fc002840f05a8126442d1bb3
:1020f800efd1089a032a00f0f180149bb3f5803fd2
:1021080080f0fd80022a0cbf04240124e7e0ddf8fa
:10211800388005910446049308960f9e0692099ffd
:102128004ff400720021384609f07afa654b03cb68
:10213800386079601a889b783a81bb720023fb72f9
:1021480002233b737d73bc73c4f30723fb7387f8c7
:10215800108023e74ff400720021384609f060fa36
:10216800584b03cb386079601a889b783a81bb72e8
:102178000023fb7202233b737d73bc73c4f30723f4
:10218800fb7387f81080089b032b08bf002605e720
:10219800514607f1200009f003fa0ce7514607f110
:1021a800430009f0fdf9049907f1240009f0f8f952
:1021b800022107f12c0009f0f3f94ff0010c87f820
:1021c80030c0002387f83130062287f8322087f89c
:1021d8003330802387f84030292387f842303c4c3d
:1021e8000fccc7f84700c7f84b10c7f84f20c7f8ff
:1021f80053302288a378a7f8572087f859305523f9
:1022080087f8fe31aa2387f8ff316346039a3946d7
:10221800019808f02bfc08b101239be00123039ce3
:10222800a21d3946019e304608f020fc4ff400728a
:102238000021384609f0f4f92649384609f0b0f982
:10224800254907f5f27009f0abf9069b591e07f509
:10225800f47009f0a5f9022107f5f67009f0a0f964
:10226800552387f8fe31aa2387f8ff310123e21da1
:102278003946304608f0fafb01230c9a39463046b5
:1022880008f0f4fb009b23f4ff7222f00102002106
:10229800384609f0c5f9bbf1000f7ff4ddae11e750
:1022a8006ff00701384609f07bf94ff0ff31381d10
:1022b80009f076f96ff0704107f1080009f070f93c
:1022c800dfe600bf4c9d00006c9d0000f8ffff009a
:1022d800589d000052526141727241610c24b9f15b
:1022e800000f0ed1029b13f0080f22d000221146d6
:1022f800019808f00efa031c18bf01232ae00624ef
:10230800ede7012300223946019d284608f0c8fc64
:1023180008b101231ee007eb091989f8b24101232e
:1023280000223946284608f0a1fb0028ded0012308
:1023380010e0149b1293002313933b46224612a9e4
:10234800019803f0f9fa03460028cfd002e00b23e6
:1023580000e00323184617b0bde8f08f0a23f9e719
:102368001123f7e71123f5e70123f3e70e23f1e73c
:102378000e23efe70e23ede70123ebe70e23e9e752
:102388001323e7e70e23e5e70e23e3e70e23e1e750
:102398000e23dfe70e23dde70123dbe70123d9e77f
:1023a8000123d7e70a9bf3b1002c3ff444ad25463f
:1023b800bafbf5f2930003f207235b0aa2f57f420a
:1023c800f63a0b498a42ddd80b9e03fb0b620eebf3
:1023d800020104980140891a01f12000711807913f
:1023e8000021032660e50e23b4e7059d079e70e6ed
:0423f800fffffe0fd6
:020000040000fa
:0423fc000020704706
:020000040000fa
:102400002de9f04f2ded028b97b092ed007b0e93ee
:102410000b680693d1e9016307930b690f900b9149
:102420001493cd680022002351ec170b8ded027b35
:1024300008f0e6f948b9069b580739d4069b13f013
:1024400008030c9336d0202306e0dde9022181f059
:102450000043cde902232d232b70079b03f1ff3ba3
:1024600001230c93dde9022121f000430c99691846
:102470000d914d4900208b4208bf82421dd10e9b19
:102480000d98413b192b94bf4849494909f030f94f
:10249000474809f0d1f8069b00930246079b0f9826
:1024a000294606f00bfc17b0bdec028bbde8f08f9f
:1024b0002b23d1e7ddf81cb0d4e7994208bf904246
:1024c0000ad20e9b0d98413b192b94bf39493a49ca
:1024d00009f00ef93848dce700220023dde90201ab
:1024e00008f064fa9fed2e7b8ded047b68b3002429
:1024f0000e9809f0bff8002ec3b20a93c0f2d7813c
:10250000672b61d1002e08bf0126231d02dbb442d8
:10251000c0f2c681652768e0cde904890134002254
:10252000264bdde9040104f00df9dde902238046c4
:10253000894608f049f90028eed00027dff88080ae
:10254000dff880a04ff000091ee00446e7e74445ad
:1025500011da87b94a465346dde9020104f0f2f880
:102560004a46cde902015346dde9040104f0eaf8e8
:10257000cde904010127dde9040100220f4b02f03f
:10258000fdfccde90401013cdde90423dde90201a4
:1025900008f036f90028dad1aae700bfaff30080cf
:1025a000000000000000f03f0000f07f08b60000cf
:1025b0000cb6000010b6000014b600000000244065
:1025c000d4feffff000050430a9f662f06f101066c
:1025d0000bd1002c04da9fedba7b8ded047b002437
:1025e0000a9b672b18bf361966279ded027bdde934
:1025f00004898ded087b4ff0000a42464b46dde929
:10260000080102f0bbfc41ec100b05f00dfa51ec97
:10261000100bb0ee408af0ee608a07f049fdb0ee94
:10262000480af0ee680a089b1093099b159083f006
:102630000043119349ec118b9ded102b08f0a2fb88
:1026400053ec102b83f00043099340464946002287
:102650009d4b8ded080a02f091fc0af1010a5645e6
:1026600080468946c9d10022984b04f06bf8804619
:10267000894602460b46dde9080108f0c1f848b971
:1026800042464b46dde9080108f090f930b1159b50
:10269000d90703d44ff000084ff0000942464b46db
:1026a000dde9020101f07aff0022cde90201864b4b
:1026b000dde9040104f046f8dde90223cde9080173
:1026c00007f0f0ff00286dd0662f04f101046dd1f2
:1026d0000136a146a9eb06031093069b0c9e4ff012
:1026e000000803f01003cdf810801593109b994556
:1026f000b24604d00b9b1b69053bb3425cd8049bdc
:1027000033b9069bda0642bf2e2305f80a3001369c
:102710000022652f05eb0600aa5529d1149b1499b8
:10272000013b9442ea54c1f1030ebcbf6442012252
:102730000a21002c40f0a5800eeb030cbcf1000f29
:1027400000f39f80002a03f1ff3114bf2d222b22ba
:102750006a540e9a413a023b192a98bf45279e4275
:1027600005eb0301ef54abf1020b01da08f0c0fff7
:10277000069b03f00303022b12d1bbf1000f0fdd08
:10278000284608f059ff05eb0b030c9a824240f3f0
:1027900083805a4630210d9808f046ff00230793a6
:1027a000284676e69ded047b8ded087b652f14bff2
:1027b000a1464ff000098de7dde90823dde90201bc
:1027c00002f0dcfb41ec100b05f02ef951ec100b84
:1027d000b0ee408af0ee608a07f06afc159b034376
:1027e0002ad10a9b672b27d1b9f1000f31da08f102
:1027f000010a029b1293039bb0ee480af0ee680aae
:1028000083f0004313939ded081b9ded122b08f000
:10281000b9fa53ec102b83f000430393dde9080170
:102820000022294b8ded020a02f0a8fb09f1ff39c5
:10283000cde90801d04659e7049b53b9b9f1000f1f
:1028400007da2e2305f80a30012301360bf1ff3b8e
:1028500004933246ab19c24605e04ff0300103f84d
:10286000011b0af1ff3abaf1000ff6d10bf1ff3369
:102870000136a3eb080b4644a844303008f80200a8
:10288000b7e7b4fbf1fc013b01fb1c443034ec54d2
:102890000bf1ff3b64464ce72a5c1a54013874e79d
:1028a000002cbff6a1ae66278fe606262de60a9b12
:1028b000672bfad01f46062687e600bfaff30080dd
:1028c000000000000000f03f000024400000144021
:020000040000fa
:1028d0002de9f04f85b0ab4b1e68197d21b93378d7
:1028e0004bbb05b0bde8f08f3378002b40f00e8273
:1028f00030460022531cdbb29942f2d010f8284f28
:102900000cb91a46f6e70232d2b2012a00f0ff8172
:102910009c490a75ff2be4d003eb8303dd00741997
:102920006379012b09d0237b042bdad8dfe803f08d
:102930000a1d2e4f7f000b46eee7237b042b10d0a1
:102940000023237394f82030012b00f0b38100237f
:10295000735584f820306371a370e3706370237142
:10296000bfe7884b00225a75eae7a3685b6a032138
:10297000e08898476061b0f1ff3fb2d0a3681b695f
:1029800022468149984702232373aae7a3681b685c
:102990006069984768b194f8203033b9a3685b68e0
:1029a00060699847606203232373012384f8203011
:1029b00097e794f82030012b03d0002384f82030cf
:1029c0008fe7204607f0dcf900232371f5e76d4b14
:1029d0005b7d012b85d06b4b01225a75636a1b69a5
:1029e0001b68b3f5007f3abf4ff40076b6fbf3f6f1
:1029f0000126644d4ff400720021286908f014fe8e
:102a0000022384f821306069a36800969e68002341
:102a10002a6904f11c01b047e369b3f1ff3f02d01a
:102a2000042323735de7574b00225a7559e794f945
:102a30002130022b06d06bb1524b00225a75032372
:102a400023734ee7a368db6a002b3ff44aaf20698b
:102a5000984746e74b4b1d690023637095f8fe319c
:102a6000552b00f09b804ff0000847464ff0ff09c0
:102a7000444b5d682b78002b7dd1424bd3f810b0ce
:102a8000237901332371227e404b53f82230039384
:102a9000184608f0d1fdc6b205f1020a3246039984
:102aa000504608f0cdfca278ab199a70731c55fa09
:102ab00083f3227930329a70b31c55fa83f30022e3
:102ac0009a70ac6185f8019067b317f0010f00f0c0
:102ad000d4801746b9f1ff0f24d02d4b33f81730af
:102ae0001bf803206a709b449bf80b209bf80a306c
:102af0001b0403eb02639bf8092003eb02239bf802
:102b0000082013446b619bf807209bf806301b04d8
:102b100003eb02639bf8052003eb02239bf80420e0
:102b200013442b61b8f1000f00f0b780194be27825
:102b30001a7001375f7001232b70124b9d68227e43
:102b40002b7a9a4217d16e68711d504608f03efcf0
:102b500088b96a7a296800230093304602f094fc11
:102b6000002800f0a08003200b4b1b681bb10a4a11
:102b7000526829689847034b00225a750223237331
:102b8000afe600bf581e0120a5aa0000701e01205c
:102b900080b7000088010020c81e012095f8ff3191
:102ba000aa2b02d04ff000085fe72b78eb2b2bd03d
:102bb00095f8c20108f043fa00284cd16378002749
:102bc000637095f8d20108f03afa20b147f0020795
:102bd00063780133637095f8e20108f030fa002859
:102be00040d047f0040763780133637095f8f20131
:102bf00008f025fa90b347f0080763780133637053
:102c00004ff00108c14633e76b783c2b03d0582bbb
:102c100001d0fe2bccd1ab78902bc9d101236370ae
:102c200095f85230462b49d095f85330412b4bd074
:102c300095f85430542b4dd095f83630462b4fd064
:102c400095f83730412b51d095f83830542b53d06c
:102c50004ff0000809e701231f46b1e74ff00108d4
:102c6000c14605e795f8f20108f0e9f90028c2d15c
:102c7000002f47d14ff00108f7e617f0020f01d0ff
:102c8000012727e717f0040f01d0022722e707f0fa
:102c90000807002f18bf03271ce71f4be2781a70a4
:102ca00000225a7047e708f005fd0d2814bf0020e8
:102cb000012059e7204607f063f848e64ff0000886
:102cc00047464ff00b09d3e64ff0000847464ff058
:102cd0000b09cde64ff0000847464ff00b09c7e659
:102ce0004ff0000847464ff00609c1e64ff00008d4
:102cf00047464ff00609bbe64ff0000847464ff045
:102d00000609b5e64ff00108c146b1e60023034ac3
:102d10000021117500e600bf88010020581e012027
:020000040000fa
:102d20002de9f04f89b081468846036803930b78fc
:102d30002f2b05d05c2b03d0039b9b6983600ae09b
:102d40004346984613f8012b2f2afad05c2af8d074
:102d50000023c9f8083098f800301f2b04d9b84b6d
:102d60000c330093474616e1802389f82f30002169
:102d7000484605f0b9f9034686e1fe2c00f2ad8025
:102d800025f81460013407a808f066f8b0f1ff3f99
:102d900000f0a380b0f5803f03d3030c25f8143076
:102da000013486b21f2e21d92f2e0cd05c2e0ad0d2
:102db0007f2ee2d83146009808f0a8fb0028dcd02e
:102dc0008be001330793079b1a782f2af9d05c2aee
:102dd000f7d01f2a8cbf00260426079f012c07d09e
:102de000022c1bd00cb305eb440222e00426f4e7ce
:102df0002b882e2bf7d1002325f8143009f123025c
:102e00009c428cbf2e21202102f8011f01330b2b85
:102e1000f6d146f0200689f82f609de06b882e2bb6
:102e2000e1d12b882e2bded1e5e7ab4652e0013c09
:102e30004fd032f8023d202bf9d02e2bf7d0600076
:102e4000002325f81430002c47d02a88202a46d1a8
:102e50002946013331f8022f202afad0002b3fd027
:102e600046f00306f6b2811e6a18695a2e2905d06b
:102e7000013c03d032f8021d2e29f9d14ff0203148
:102e8000c9f82410c9f82810c9f82b104ff0080809
:102e90000022019202926a4a18320492a34603f178
:102ea000010a35f8134084b3202c1ed02e2c1ad0e2
:102eb000019b43451ed2da4500f0f2807f2c7dd87d
:102ec0002146049808f022fb002800f0ae80059609
:102ed00086e0ab460023abf800300623d4e00023a5
:102ee0002e2ac0d1bce7da45e2d046f00306f6b29e
:102ef0005346d4e7b8f10b0f53d0da4500f0d48035
:102f000046f00306f6b240f2cf8099f82430e52b64
:102f100050d0b8f1080f00f0a680029a02f00c031e
:102f20000c2b03d002f00303032b02d146f0020660
:102f3000f6b216f0020f0dd1029b13f0010f1cbf69
:102f400046f01006f6b2029b13f0040f1cbf46f0c9
:102f50000806f6b289f82f60484601f02dff99f86f
:102f60002f200346002840f0838012f0040f40f029
:102f70008b8099f8063013f0100f00f08f800398c3
:102f800000f14001d9f81430c3f30803194408f0e4
:102f900089f8c9f808000797d9f80030dd680024df
:102fa000f1e646f00306f6b299f82430e52bb4d1e9
:102fb0004ff00b08052389f82430aae746f00203f6
:102fc000dbb2059340f2b511204607f0e1f8044664
:102fd00010f0800f11d000f07f041a4b1c5d14bb61
:102fe000059b43f00306f6b2019b5f245a1c019235
:102ff0004b4483f82440534651e7ff28efd908f1aa
:10300000ff33019a9a4207d2019a531c4a44010a9b
:1030100082f82410059ee9e746f00306f6b253460f
:10302000cdf804803be7059e4ae7a4f141039bb23b
:10303000192b09d8029b43f002030293019bd5e7a9
:103040002c9d00003c8c0000a4f161039bb2192b65
:1030500007d8029b43f001030293203ca4b2019bda
:10306000c4e7019bc2e7029b9b00dbb2029354e7db
:10307000042b09d112f0200f0ad012f0040f8ad0cd
:10308000802389f82f300023184609b0bde8f08f5f
:1030900002f00402002a08bf0523f5e70523f3e741
:1030a000b8f10b0f3ff47daf029b9b00dbb20293a4
:0c30b0005b464ff00b0808220192f0e68e
:020000040000fa
:1030bc002de9f04f85b00e46154600230b6006f047
:1030cc00d7fa071ec0f21b81a34b53f82740002ce4
:1030dc0000f01a81346005f0fe05237873b1607836
:1030ec00fff786f910f0010f08d1002d00f00881d0
:1030fc0000f00405002d18bf0a2501e10023237000
:10310c00964b13f81700607008f070fa10f0010677
:10311c0040f0fc801db110f0040f40f0f9808f4b93
:10312c0003eb47077f780021204603f073fe02284b
:10313c0001d02dd897b3042f00f20c8104f2062590
:10314c0004f24629e846284608f05ef948f8040bd4
:10315c0010354d45f7d13fb17d1e0deb85050df1b9
:10316c0010084ff003090be03d46f6e7204603f04c
:10317c0051fe6fb9012801d810e04846a84507d088
:10318c0055f8041b0029f1d1002ff6d00d25b7e01e
:10319c00042800f0bf80012800f2be8094f84c2077
:1031ac0094f84b3043ea02231bb2b3f5007f40f096
:1031bc00b58094f8575094f8563053ea052504d14d
:1031cc0004f1640008f020f90546d4f83490256227
:1031dc0094f85070a7707b1edbb2012b00f2a0801c
:1031ec0094f84d801ffa88f36381002b00f09a80cd
:1031fc0008f1ff3313ea080f40f0968094f8523030
:10320c0094f851a04aea032a0ffa8afa1ffa8afba9
:10321c00a4f808b01bf00f0f40f0888094f85430dd
:10322c0094f8530050ea032003d104f1600008f035
:10323c00ebf894f84f2094f84e3053ea022277d0f2
:10324c0005fb07fc02eb1b136344984272d3c01ab4
:10325c00b0fbf8f140456fd34148814200f28880c1
:10326c004ff6f570814288bf4ff0030800f2828060
:10327c0040f6f570814288bf4ff002087dd88f1c54
:10328c00e761c4f824904a44a2624b442363bbf127
:10329c00000f5bd06244e2624ff0010807eb47027b
:1032ac0007f0010303eb520303f2ff13b5eb532fab
:1032bc004ad34ff0ff33636123618023237184f879
:1032cc000080284a138801339bb21380e380264b7d
:1032dc00e3600023a361254b1b689c420bd0354651
:1032ec000ee0bbf1000f2dd06244e262b8f1020f88
:1032fc00d4d17b00d8e71d4b00221a60efe70b25d9
:10330c00284605b0bde8f08f0c25f9e70325f7e753
:10331c000a25f5e70125f3e70d25f1e70d25efe784
:10332c000d25ede70d25ebe70d25e9e70d25e7e785
:10333c000d25e5e70d25e3e70d25e1e70d25dfe795
:10334c000d25dde70d25dbe70d25d9e70d25d7e7a5
:10335c000d25d5e70d25d3e74c1c01208801002055
:10336c00f5ffff0fe81e0120ac190120a01e012063
:10337c004ff00008b8f1000fead08f1ce761c4f8d9
:10338c0024904a44a2624b442363b8f1030fa8d1a2
:10339c0094f86b2094f86a3043ea02231ffa8afaf5
:1033ac005aea0303cad104f16c0008f02df8e0626c
:1033bc00bb0003f2ff13b5eb532fc1d34ff0ff3318
:1033cc00636123618023237194f8712094f8703029
:1033dc0043ea02231bb2012b7ff471af09f1010107
:1033ec00204607f0fff800287ff469af0023237113
:1033fc0094f83f2294f83e3243ea02231bb20f4a60
:10340c0093427ff45caf04f1400007f0fdff0c4bde
:10341c0098427ff454af04f5097007f0f5ff094b9f
:10342c0098427ff44caf04f50a7007f0edff606131
:10343c0004f50b7007f0e8ff206140e755aaffff89
:08344c005252614172724161ac
:020000040000fa
:103454002de9f04f9db004460e46174600218df825
:10346400231048220aa808f0ddf80994e94607e188
:10347400013609a807f05ef802e18846b178033600
:103484004ff0000e0fe1b17803364ff020084ff0f3
:10349400020e08e1a1f13003dbb2092b88bf00253d
:1034a40000f20881002505eb850501eb4501a1f13a
:1034b400300516f8011ba1f13003dbb2092bf2d958
:1034c400f8e031782a2904d157f8044b7178023690
:1034d400f5e00136a1f13003dbb2092b88bf0024eb
:1034e40000f2ed80002404eb840401eb4401a1f11b
:1034f400300416f8011ba1f13003dbb2092bf2d919
:10350400dde057f8041bc9b209a807f013f8b7e0c7
:10351400bb465bf8047b07b3397809b33b46c7f174
:10352400010000eb030a13f8012f002af9d1002c43
:1035340002dba24528bfa2461ef0020f13d1554557
:1035440007d9414609a806f0f5ff0af1010a5545d5
:10355400f7d1397841b95f4692e00df12307dbe7f3
:103564004ff0000ae3e759b1b8464cb109a806f098
:10357400e1ff18f8011f19b1a4eb0803df42f5d1ec
:103584000af1010455450bd9202700e01c463946b1
:1035940009a806f0cfff631ca542f7d15f466fe090
:1035a4005f466de009a806f0c5ff69e00a2000e067
:1035b40010201ef0040f00f0e68057f8042b642955
:1035c40004d1002abcbf52424ef0010e78290cbf30
:1035d4004ff0270b4ff0070bcc464ff0000a03e0e7
:1035e40057f8042bede7a246b2fbf0f100fb1123e0
:1035f400dbb2092b84bf5b44dbb20af10104303334
:103604000cf8013b904204d80a46202cebd14ff031
:103614001f0a1ef0010f06d01cab1c442d2304f816
:10362400703c0af102041ef0020f0dd1ac420dd21f
:10363400a246414609a806f07dff0af1010a554554
:10364400f7d1013c4c4404e0a246fae7a246f8e76d
:103654004446a04618f8011909a806f06bff4c452a
:10366400f6d10af1010455450ad94ff0200800e0cb
:103674001c46414609a806f05dff631ca542f7d12c
:103684003178002900f0858025297ff4f1ae717826
:1036940030293ff4f2ae2d293ff4f5ae02364ff057
:1036a40020084ff0000e2a297ff4f4ae57f8045b8b
:1036b40016f8011b2e293ff404af4ff0ff346c2998
:1036c40004bf4ef0040e16f8011b002961d0a1f1cd
:1036d4005803202b3ff666af01a252f823f000bf37
:1036e400b5350000a9350000a9350000a935000052
:1036f400a9350000a9350000a9350000a93500004e
:10370400a9350000a93500007b370000073500000b
:10371400b1350000a9350000a9350000a935000025
:10372400a9350000a9350000a9350000a93500001d
:10373400a9350000a9350000a9350000693700004b
:10374400a9350000a9350000a93500001535000091
:10375400a9350000b1350000a9350000a9350000e5
:10376400b53500001ef0040f01d108200ee057f813
:10377400042b08202ae71ef0040f03d057f8042b6b
:10378400022023e7022064293ff42aaf57f8042bd0
:103794001ce709a806f0a2ff1db0bde8f08f00bf2a
:020000040000fa
:1037a4003c1e01201c00000000000000001001204d
:1037b4001003000000000000ec1e012001000000c6
:1037c4000100000001000000901e01201000000014
:1037d40000000000841e01200c0000000000000016
:1037e400f80f01200800000000000000ed1e012079
:1037f40001000000000000004c1c01200400000037
:1038040000000000a01e01201000000000000000c5
:10381400e81e01200200000000000000ac19012095
:103824000002000000000000c01e0120080000008b
:10383400000000000000002054010000000000000f
:10384400ee1e01200100000000000000c81e01203f
:103854000800000000000000f00301200008000040
:1038640000000000581e01201800000001000000a4
:103874006001002090030020e4b600000000000076
:103884009001002000000000701e012014000000c0
:10389400010000000cb1000010b1000014b10000e0
:1038a4001cb1000020b10000600100204c020000a7
:1038b40000000000c01d01203800000000000000ce
:1038c40060150120400200000000000010130120d8
:1038d4005002000000000000ef1e01200100000063
:1038e40000000000801d01204000000000000000d6
:1038f400ac1b0120a000000000000000ea1e012013
:10390400020000000100000001000000f81d012079
:103914002400000000000000b01e01201000000080
:1039240000000000ac0300200800000000000000bc
:10393400c00300203000010000000000d81e012058
:103944000400000000000000301d012050000000b1
:1039540000000000501c012078000000010000005d
:10396400601c0120581c0120601c01200000000084
:103974000000000025000000f80b012000040000f6
:103984000000000000000000000000000000000033
:103994000000000000000000000000000000000023
:1039a40011b800000000000000000000000000004a
:1039b4000000000005950000000000000000000069
:1039c40000000000000000000000000000000000f3
:1039d4000000000000000000f00b012008040000bb
:1039e400000000001c1e0120200000000100000057
:1039f40001000000030000000000000000000000bf
:103a0400000000000000000000000000d01e0120a3
:103a1400d01e01200800000000000000dc1e012070
:103a24000400000000000000e01e0120040000006b
:103a340000000000a01701200c020000000000009c
:103a4400c81c012068000000010000000100000003
:103a5400030000000000000000000000000000005f
:103a6400000000000000000081930000000000003e
:103a7400000000000000000017b800006f9a00006a
:103a84000000000000000000000000000000000032
:103a94000000000000000000000000000000000022
:103aa4000000000000000000000000000000000012
:103ab40000000000e41e01200400000000000000db
:103ac40000000000000000002222222222222222e2
:020000040000fa
:103ad4002de9f04fadb00027dff8e4a203910646cc
:103ae4001546b8464ff0ff3903990b78002b00f0c8
:103af400f9800cabcde907890a938023cdf82480a3
:103b04000b9300240b5d0bb1252b26d134b1224637
:103b1400304606f01dfe039b23440393039b1a784f
:103b2400252a40f0d78003f1010bcdf80cb003989f
:103b340003782b2b1ad025d8202b1bd0232b1dd058
:103b44002a2b27d006f08dfb0990039b1a78303a74
:103b5400092a2ed801330393f7e70134d2e7079bf0
:103b640043f00103013007930390e0e7079b43f020
:103b74000403f7e7079b43f00803f3e7079b43f0cd
:103b84001003efe72d2bead0302bd9d1079b43f05c
:103b94000203e7e72b681a1d1b682a600130002b1b
:103ba4000390099305da079a5b4282f001020792b7
:103bb4000993079bda0744bf23f002030793039b8f
:103bc4001a782e2a0dd1581ccdf8208003905a78eb
:103bd4002a2a25d1023303932b681a1d1b682a60f5
:103be400089303a806f026fe039b0190187807f0bb
:103bf4003ffd6928019979d032dc632800f0c68042
:103c040019dc252800f0d080612853d025238df8b5
:103c14001030cdf80cb0cdf81c80cde90898c0e088
:103c240006f01ffb0890039b1a78303a092ad8d86b
:103c340001330393f7e7642858d06728e6dc2a4663
:103c440004a807f0def8002800f09c80039b5a1caf
:103c540003921b7804aa07a93046fef7cffb38e08d
:103c6400702873d015dc6e2800f087806f28cdd1c2
:103c74002b46002204a804f02dfc002800f08280ca
:103c8400039b04aa013307a93046039305f034fad1
:103c94001fe075283ad0782848d07328b6d18029f7
:103ca40070d1039b2a6801330393131d2b601268a0
:103cb40000235be02a4604a807f0a3f8002861d09b
:103cc400039b5a1c03921b7804aa07a9304607f0e9
:103cd400a7fd04443c44a7426edd384b4f221a60d2
:103ce4004ff0ff3738462db0bde8f08f2b46012248
:103cf40004a804f0effb002844d0039b04aa01337a
:103d040007a93046039304f09dfae2e72b4600220c
:103d140004a804f0dffb002834d0039b04aa013379
:103d240007a93046039305f0a9ffd2e72b460022ea
:103d340004a804f0cffb28b3039b5a1c03921b78fe
:103d440004aa07a9304602f0bffec2e72b460022b0
:103d5400f02104a804f0befba0b1039b013303933c
:103d6400dde90423134306d10023524607a9304654
:103d740005f02cffade77823e2e72b463a1904a8b7
:103d840005f018f8039b01330393a3e78029f9d1c5
:103d9400039b013303932b681a1d1b682a608df85b
:103da4001030012304aae1e78029ebd1039b8df8ad
:103db400100001330393f4e7274695e6e01e012043
:043dc4007eb20000cb
:020000040000fa
:103dc8002de9f04f099f154604468e461e46002be6
:103dd80040f0cc808a42b2fa82fc4cd9bcf1000f88
:103de8000bd0ccf1200801fa0cfe20fa08f802faf0
:103df8000cf548ea0e0e00fa0cf44fea15491ffac2
:103e080085f8befbf9fa210c09fb1ae30afb08fb4b
:103e180041ea03439b452ad9eb180af1ff3004d243
:103e28009b4502d9aaf102002b44a3eb0b03a4b2d1
:103e3800b3fbf9f209fb123302fb08f844ea034426
:103e4800a04516d92c1902f1ff3303d2a04501d998
:103e5800931e2c44a4eb080443ea004027b124fa3b
:103e68000cf400233c607b603146bde8f08f50467f
:103e7800dbe71346eee702b9ffdebcf1000f2ed1f7
:103e88008b1a01264fea154eaab2b3fbfef8210c95
:103e98000efb183308fb02f941ea0343994561d93f
:103ea800eb1808f1ff3004d2994502d9a8f10200b5
:103eb8002b44a3eb0903a4b2b3fbfef10efb1133b1
:103ec8004a4344ea0344a2424ed92c1901f1ff3374
:103ed80003d2a24201d98b1e2c44a41abce7ccf110
:103ee800200e02fa0cf521fa0ef901fa0cf320fa69
:103ef8000efe4eea03034fea154800fa0cf4b9fb2c
:103f0800f8f11ffa85fe08fb1192180c01fb0ef65a
:103f180040ea0242964221d9aa1801f1ff3003d2a1
:103f2800964201d9881e2a44921b9bb2b2fbf8f92b
:103f380008fb192209fb0efe43ea02439e450fd9ee
:103f4800eb1809f1ff3604d29e4502d9a9f1020601
:103f58002b44a3eb0e0346ea004693e70846e3e743
:103f68004e46f6e74046a4e70b46b6e78b4206d92d
:103f7800002f7ed00026c7e90001304674e7b3fa67
:103f880083fcbcf1000f0fd18b4201d3824209d8c8
:103f9800841a61eb030e0120002f6dd0c7e9004e93
:103fa800002661e76046f7e7ccf1200e03fa0cf330
:103fb80022fa0ef521fa0ef41d4301fa0cf320fa49
:103fc8000ef10b434fea154a00fa0cf6b4fbfaf966
:103fd8001ffa85f80afb19401c0c09fb08f144ea92
:103fe8000044a14202fa0cf23fd92c1909f1ff3022
:103ff80004d2a14202d9a9f102002c44641a9bb24e
:10400800b4fbfaf90afb194409fb08f843ea04412e
:1040180088452cd9691809f1ff3304d2884502d99b
:10402800a9f10203294443ea0040a1eb0801a0fbdf
:1040380002894945c2464c4602d306d1464504d2b8
:10404800b8eb020a69eb05040138afb1b6eb0a0315
:1040580061eb040606fa0efe23fa0cf34eea03039c
:1040680026fa0cf6c7e900369ae74846c6e74b46f3
:0c407800d9e73e463846f7e63e46f5e63e
:020000040000fa
:104084002de9f04f89b090f82fb01bf0a00f40f04d
:10409400fb80d0f80090d9f80c301a881ab30027a6
:1040a400013733f8022f002afad1064605ab02463f
:1040b40052f8240f5168926807c31bf0010f00f0f7
:1040c4008180402386f82f3006f1240405ab03cb0e
:1040d400706261601a889b782281a37201252b4645
:1040e4004ff07e0a02e00027dfe72b460df1130ca8
:1040f400072200e0734603f00f0000f130014fea9d
:10410400131e392988bf00f137010cf80119013a4f
:1041140000f0de800f2bedd808ab134403f814ac89
:1041240096f82430202b08bf002308d02146002312
:1041340001339a4203d911f8010f2028f8d1013b29
:10414400234407e02021581c597002331b1b072b02
:1041540008d80346072af5d808a9114411f8141cf5
:104164000132f0e7304600f025fe804620bb0135e1
:10417400642d4ad0d9f80c2005ab03cb20606160d4
:1041840019889b782181a372052daed9901e2b46e8
:1041940030f8022f002aa9d0102102f0010c0cebf8
:1041a4004303520813f4803f1cbf83f4883383f025
:1041b40021030139f1d1ebe7642d6bd0042865d1db
:1041c40086f82fb01bf0020f00f086800c37564c97
:1041d400a4fb0734a408611c304605f07afd804630
:1041e400002853d10c2f7ed97169a1eb44113046bc
:1041f40003f078ff8046002848d106f1240006f039
:10420400beff0090002301931ae04ff007083de041
:10421400384649e04ff6ff72934202d03ef8103020
:104224000bb94af0400a81f800a0012389f8033051
:104234000021304603f05cfc804638bb013c52d080
:10424400f169484606f0d2f98046f8b9d9f80ce08d
:10425400316a5ffa84fa009b4b734ff00f03cb7201
:104264004ff000030b738b76cb760af1ff3000eb33
:10427400400300eb83002d4a02f10d0c019b4ff625
:10428400ff754ff0ff0812e04ff00608404609b0f2
:10429400bde8f08f4ff00708f8e7177801eb070b3c
:1042a40001f807808bf8018001326245b2d0ab423d
:1042b400f3d0471c3ef81030107801eb000b0b5480
:1042c400180a8bf80100002ba2d138462b46ebe7e5
:1042d4008df80ca0134632e70121304605f0f9fcb5
:1042e40080460028d2d1f169484606f07ff980461d
:1042f4000028cbd120220021306a07f093f9326ada
:10430400334653f8240f59681060516019899b7a19
:1043140011819372326a96f82f3003f018031373e5
:10432400012389f80330b1e74fecc44eb8b500005f
:020000040000fa
:104334002de9f04790b00191002800f0ef80044689
:10434400154602f03f073a4602a901a8fef7b4fe5b
:10435400064628b100232360304610b0bde8f0873c
:10436400029b0393019903a8fef7d8fc0346002897
:1043740040f0fd809df93b30002bc0f2e38037f024
:10438400010314bf0121002103a805f047f90346e6
:1043940015f01c0f40f0ee80002840f0d1809df80d
:1043a400123013f0100f40f0c38015f0020f03d049
:1043b40013f0010f40f0be8015f0080f01d047f054
:1043c4004007029b5b6b63620b9ba36237f00103a4
:1043d40014bf0121002103a804f01afe2061002863
:1043e40000f09e80ddf808a0ddf82c8041465046a0
:1043f40006f056fe0546a06008f11c0007f008f818
:104404008046e060c4f800a0baf80630a38027759f
:10441400002161752162a16104f130094ff4007239
:10442400484607f0fff817f0200f95d0b8f1000fb9
:1044340092d0c4f81880baf80a707f02b84500f226
:104444008880e561c8f30803002b85d0029f2946c4
:10445400384606f0e8ff002853d1022664e0042b16
:1044640040f083804b4b1b680bb1122672e703a804
:10447400fff706fe00285fd147f0080717f0080f82
:104484009fd006f04afd054601460b980e3007f012
:1044940089f829460b98163007f084f8029dddf858
:1044a4002c804146284606f0fbfd8146202388f8ef
:1044b4000b3000220b99284606f018ff00210b98b8
:1044c4001c3007f06ff8029b0122da70b9f1000f7b
:1044d4003ff475af029b5d6b0022494603a804f0cc
:1044e40033f908b1064635e72946029806f07ef806
:1044f40009f1ff33029a136100283ff460af0646c6
:1045040028e700eb5822226201234946787806f016
:10451400c9fb00283ff420af012605e009261be76c
:10452400022617e70226e561206906f0bbf911e7c8
:1045340004260fe707260de706460be7072609e7db
:10454400064607e7062605e7a8eb07084745bff434
:1045540078af2946204603f094f905460128e1d9ad
:10456400b0f1ff3ff0d10126dde71e46f2e615f07b
:104574001c0f0dd0002b7ff472af9df8123013f096
:10458400110fdbd115f0040f3ff478af0826e1e6f4
:084594000646dfe6a01e01202f
:020000040000fa
:10459c0030b591ea030f00f18280841a71eb030ca1
:1045ac0005d2121953eb0c03001b71eb0c0140f2fa
:1045bc00000ccff6e07c1cea430f52d0bceb410f51
:1045cc005fd90c0da4eb135e5ff0010c6cf31f5163
:1045dc006cf31f53def1200c2ad303fa0cf54019af
:1045ec0041f1000122fa0ef5401923fa0ef569414a
:1045fc0012fa0cf2cd0208d349085fea30005feae8
:10460c00320228bf42f001020134013c5fea500c37
:10461c0072f1004250f1000051eb04514ff40013c1
:10462c0013eb410f38bf30bd090d0905002030bd1b
:10463c00bef1200ebef1200f1ed223fa0ef540194a
:10464c0041f10001cef1200c124218bf012203faf5
:10465c000cf52a43cee711ea5c0f04bf00200021c1
:10466c0030bd1cea410f04bf01f00041002030bdf9
:10467c0001f00041002030bd21f4801101eb045108
:10468c0030bd004218bf41f00101bceb410f08bf27
:10469c0030bd4ff0fe4141f47801002030bd83f075
:1046ac000043841a71eb030e07d28ef0004e001bf0
:1046bc0071eb0e01121953eb0e0340f2000ccff606
:1046cc00e07c1cea430fc6d0bceb410f72d90c0d39
:1046dc00a4eb135ec90241ea5051c00241f0004103
:1046ec00db0243ea5253d20243f00043def1200cca
:1046fc0041d312fa0cf522fa0ef203fa0cf542ea47
:10470c00050218bf42f0010223fa0ef3801a9941f8
:10471c00e30ac4f30a0411f0404f03d418d0013c4f
:10472c0040004941013c23d44205c00a40ea4150b3
:10473c00c90a51eac3715fea500c72f1004250f1a0
:10474c00000051eb045130bd01002fd00020203c63
:10475c000029f9d0b1fa81fcdcf1200e11fa0cf130
:10476c0030fa0ef510fa0cf02943a4eb0c04d9e73f
:10477c000020d90730bdaef1200ebef1200f0dd2b6
:10478c00cef1200c03fa0cf533fa0ef32a4318bfc2
:10479c0043f00103c01a61f10001b9e721f00041b7
:1047ac00c00a40ea4150c90a01eb045130bd002057
:1047bc00002130bd004218bf41f00101bceb410f9c
:1047cc007ff467afbceb430f3ff463af30bd00bf6a
:020000040000fa
:1047dc0038b5804b1b7a082b00f2f980dfe813f018
:1047ec00090010001b00340056008800a600e800e9
:1047fc00f100784b5b7a6bb1764b01221a7209e0af
:10480c00754803f013feb0f1ff3f724b0cbf092249
:10481c0002221a7238bd0421704802f073fa6d4bf3
:10482c001860b0f1ff3f02d109221a72f2e7694c0d
:10483c000323237240220a21694806f0c5fb06f0c7
:10484c0073f9c4e90401e5e7624bdb68b3f5200fab
:10485c0005d1604b04221a720022da60dae74ff4b9
:10486c00803260495b4b186804f0defab0f1ff3f10
:10487c0005d0584ad36803f58033d360cae7554c4a
:10488c00206804f06ffc09232372c3e7514b1868ae
:10489c0004f0d6fc18b14f4b09221a72bae706f095
:1048ac0043f94c4c23696269c01a61eb020105f0b3
:1048bc00dffa84ed060ab2ee047ac7ee007ac4ed94
:1048cc00087a10ee100a06f085f8434d02460b46a6
:1048dc0005f16c0006f078fb206a06f07bf80246c6
:1048ec000b4605f18c0006f06ffb0523237291e754
:1048fc0000221146374b186803f05af9b0f1ff3f0c
:10490c0003d1344b09221a7284e7324c06232372ea
:10491c0040220a21344806f057fb00220023c4e948
:10492c00042306f001f9c4e9040173e74ff4803263
:10493c002c49284b186804f0a1fbb0f1ff3f30d094
:10494c00244bda681044d860b0f5200f7ff462afc6
:10495c0006f0eaf81f4c23696269c01a61eb020188
:10496c0005f086fa84ed070ab2ee047ac7ee007af7
:10497c00c4ed097a10ee100a06f02cf8164d02461a
:10498c000b4605f16c0006f01ffb606a06f022f87e
:10499c0002460b4605f18c0006f016fb072323722a
:1049ac0038e70c4c206804f0ddfb0923237231e757
:1049bc00084c0023e360206804f0d4fb0823237226
:1049cc0028e70a4b4ff48022c3f8142122e700bfda
:1049dc0020e700bfc0030020287100003c710000dc
:1049ec004c710000f0030020d871000000800041e1
:020000040000fa
:1049fc0061001a03e0001703f8000703ff00010031
:104a0c0078010001300132010601390110014a011f
:104a1c002e017901060180014d00430281018201c2
:104a2c0082018401840186018701870189018a0141
:104a3c008b018b018d018e018f01900191019101f0
:104a4c0093019401f60196019701980198013d029a
:104a5c009b019c019d0120029f01a001a001a201cc
:104a6c00a201a401a401a601a701a701a901aa0101
:104a7c00ab01ac01ac01ae01af01af01b101b201b0
:104a8c00b301b301b501b501b701b801b801ba0161
:104a9c00bb01bc01bc01be01f701c001c101c201d7
:104aac00c301c401c501c401c701c801c701ca01c2
:104abc00cb01ca01cd011001dd0101008e01de0127
:104acc001201f3010300f101f401f401f8012801d2
:104adc00220212013a020900652c3b023b023d0204
:104aec00662c3f0240024102410246020a01530277
:104afc00400081018601550289018a0158028f010b
:104b0c005a0290015c025d025e025f029301610237
:104b1c0062029401640265026602670297019601c3
:104b2c006a02622c6c026d026e029c0170027102b0
:104b3c009d01730274029f0176027702780279025a
:104b4c007a027b027c02642c7e027f02a601810227
:104b5c008202a9018402850286028702ae01440208
:104b6c00b101b20145028d028e028f0290029102b8
:104b7c00b7017b030300fd03fe03ff03ac0304003a
:104b8c008603880389038a03b1031103c20302005d
:104b9c00a303a303c4030803cc0303008c038e03f9
:104bac008f03d8031801f2030a00f903f303f4038b
:104bbc00f503f603f703f703f903fa03fa033004da
:104bcc00200350041007600422018a043601c1043a
:104bdc000e01cf040100c004d00444016105260479
:044bec00000000bf06
:020000040000fa
:104bf0002de9f04f87b004468846164699460023b3
:104c0000c9f80030039005a905f00afb01900028bf
:104c100045d1637d0193002b41d1237d13f0020f19
:104c200000f0c680a369f34200d3de43002e00f0fb
:104c3000ba8004f13003029390e0e169039801f037
:104c4000d7ff002800f0af8001282cd0b0f1ff3f43
:104c50002dd0e061a36803b9a06094f91430002b53
:104c600029dbddf814b0e169584606f0defb824628
:104c700090b3ba44b6f5007f45d3750abbf80a3045
:104c80007a199a4288bfdd1b2b46524641469bf853
:104c9000010005f0effe18b301236375019301983d
:104ca00007b0bde8f08f022363750193f7e7012396
:104cb00063750193f3e70123226a0299059840780e
:104cc00005f0d8fe20b9237d03f07f032375c8e7e4
:104cd000012363750193e2e7022363750193dee725
:104ce000216aa1eb0a01a94201d36d0226e04ff42b
:104cf000007208eb4121029806f0a2fb237d03f02d
:104d00007f032375f1e7236a534503d0a269e36863
:104d10009a423bd3c4f820a0a069c0f30800c0f5b4
:104d20000075b54228bf35462a464146029b1844c5
:104d300006f086fb237d63f07f032375d9f80030ee
:104d40002b44c9f80030a844a3692b44a361e2684e
:104d5000934238bf1346e360761b24d0a369c3f3a4
:104d60000802002ad8d1059a5789013f17ea53272c
:104d70007ff473af002b7ff460afa06800287ff44e
:104d800063af0021039801f033ff5ae70123524635
:104d900002999bf8010005f087ff0028bad0012393
:104da000637501937be7237d43f04003237576e72a
:064db0000723019373e7e5
:020000040000fa
:024db600704744
:020000040000fa
:104db8002de9f04f87b00446d0f800b0002103f089
:104dc8008ff90546002840f0b6804ff0ff33236383
:104dd8004ff0ff08c1461f460ae027634ff0ff095e
:104de8000021204602f082fe0546002840f0a380fc
:104df800e169584605f0f8fb0546002840f09b801d
:104e0800266a3578002d00f09580f37a03f03f028a
:104e1800a271e52de1d013f0080f15d00f2adcd1cf
:104e280094f82f3013f0400fdad115f0400f26d048
:104e380096f80d8005f0bf0563692363737b4345ce
:104e480023d04ff0ff09cbe70f2ae9d0b9f1000fc3
:104e580004d1304606f091f9404570d094f82f50af
:104e680015f0010507d10b2204f12401304606f0a4
:104e780005fa00285fd027634ff0ff09b0e7a9457e
:104e880018bf4ff0ff09abd1d8e7f27eb37e53eae3
:104e980002235bd1dbf80c000590337803f03f0365
:104ea800013b03eb430203eb8203dff8c4a00121bb
:104eb800cdf80480cdf808b00495984603940446cc
:104ec80006e04ff6ff739d4249d1284b53451ad04f
:104ed8001af8013bf2185278f55c45ea02250029d8
:104ee800efd0b8f1ff0f2cd8284603f045f88346d9
:104ef80008f1010934f8180003f03ef8834528d179
:104f08002946c846e1e7ddf808b0049d4246ddf8c9
:104f18000480039c337813f0400f04d019b1059b2b
:104f280033f812301bb9013d5ffa85f958e74ff0a5
:104f3800ff0955e70425284607b0bde8f08f4d4620
:104f4800f9e7ddf80480ddf808b0039c4ff0ff09ad
:104f580046e7ddf80480ddf808b0039cf6e7ddf8e5
:104f68000480ddf808b0039cf0e700bfc5b5000079
:044f7800b8b50000c8
:020000040000fa
:104f7c002de9f04391ea030e0ef0004e40f20007cb
:104f8c00cff6e07717ea41051ebfbd4217ea43058d
:104f9c00bd4200f09f807f0d17ea135623ea47535a
:104fac0043f4801317ea115521ea475141f480115b
:104fbc00ad1b05f2fd354fead31c1cf1010c4ff073
:104fcc000047b7fbfcf77f01a2fb079c0024e3fb27
:104fdc0007c4d9f100096ceb4c0ca0fb0762002054
:104fec00e1fb072000275feac628e0fb0987760d66
:104ffc0046eac226520df61900277a41e0fb0c62f4
:10500c005feac823e2fb09375fea585848eac6282a
:10501c00760d18eb070800214e41e2fb0c8602ebe3
:10502c00c020da02e6fb09215b0d43eac8235feae4
:10503c0058585b18002758eb0708e6fb0c38d102d0
:10504c00e8fb0917520d42eac3225b0dd219002767
:10505c007b41e8fb0c2308ebc6265feac128e3fb87
:10506c000987490d41eac221520dc91942f10002ca
:10507c00e3fb0c12470019eb08095ceb010c72eb1b
:10508c00040453ebc62047eb56530026b3f5000f30
:10509c007641ad190236d6f1200910fa09f4f04028
:1050ac0013fa09f21043f340e40f001943f1000323
:1050bc00b3f5001f24bf5b08013540f2fe77bd42fb
:1050cc0004d24eea05511944bde8f0832d4224d593
:1050dc00714626e0004218bf41f00101124218bf90
:1050ec0043f00103b7eb410f2cbfb7eb430f1be0b1
:1050fc00b7eb410f04bfb7eb430f15e017ea410fb5
:10510c0004bf17ea430f0fe017ea410fe0d017ea8c
:10511c00430f02d0b7eb430fdad04ef0fe4141f40f
:10512c0070010020bde8f08340f20001c7f6f87171
:04513c00f7e700bfd2
:020000040000fa
:105140002de9f04f87b0039003a805f0d5f90028aa
:1051500003da002007b0bde8f08f039b1b095d1e3a
:10516000202d0fd9023b5e4ab3f5007f35bf02eb1d
:10517000d30302ebd31313f8045c13f8045c34bfbd
:10518000013511350123a5f12001c5f1200203faf3
:1051900001f923fa02f203fa05f8d8f1000849ea06
:1051a000020969eb4909cde90089dff84081dff8a0
:1051b00030914746d8e90023009902ea010a019993
:1051c00003ea010b5aea0b0342d1039b05a81033f3
:1051d000059306f040f918b9424b0c221a60b9e762
:1051e000d8f80852a84206d0059b103b059301232e
:1051f00000f110058360059bea18012143f00103cb
:10520000b5f1080442f8083c42f8041cc7f808222b
:1052100045f8043c9dd0204605f0bcfc88b155f80b
:10522000083c55f8041c23f00103e31a5a6822f0e5
:1052300001020a445a6055f8041c21f00101625031
:105240001c462046039905f0d5fc04f1080081e7cf
:105250005446254bbaf1000f34d1cbf1000000eadf
:105260000b00434309ebd36393f83c602036304690
:1052700005f068ff731c57f8334007ebc303083b86
:105280009c4297d0272e26dd0235ae4201dc3f2e10
:1052900021d16268039922f00102551a284605f0cf
:1052a000e7fa864217d1e068a6686318d8609e6066
:1052b00083609868c36041f0010060505d60a55054
:1052c0006060bee7caf100002040434309ebd363ae
:1052d00093f83c60cbe73146204604f0a5fcb0e7ec
:1052e000b8990000e01e012029e66b07a0170120f5
:020000040000fa
:1052f0002de9f04f87b005468846144699460023ad
:10530000c9f80030029005a904f08aff0090002837
:1053100040f09d806b7d0093002b40f098802b7daa
:1053200013f00103039300f0ac80ee68ab69f61a4a
:10533000a64228bf2646002e00f0898005f13003e2
:1053400001934fe0e969029802f09dfa58e00223c8
:105350006b7500937be001236b75039b009376e0f4
:1053600002236b75009372e095f91430002b01db7a
:1053700064022ce0286aa0eb0a00a042f8d24ff4a5
:105380000072019908eb402006f05af8f0e72a6a0b
:1053900052450cd095f91430002b5cdb01235246aa
:1053a00001990598407805f07ffc002864d1c5f884
:1053b00020a0a969c1f30801c1f50074b44228bf57
:1053c00034462246019b1944404606f039f8d9f884
:1053d00000302344c9f80030a044ab692344ab61da
:1053e000361b34d0ab69c3f30802002ae1d1059a19
:1053f0005789013f17ea532708d1002ba2d1a8688b
:105400000128a4d9b0f1ff3fa5d0e861ddf814b0c0
:10541000e969584606f009f882460028a0d0ba4447
:10542000b6f5007fb3d3740abbf80a303a199a4232
:1054300088bfdc1b2346524641469bf8010005f01d
:1054400033fc002890d001236b75039b00930098d8
:1054500007b0bde8f08f012301999bf8010005f02a
:1054600009fb20b92b7d03f07f032b7596e7012301
:105470006b75039b0093eae701236b75039b009315
:08548000e5e707230093e2e7d2
:020000040000fa
:10548800002800f0b78070b582b00646b1b1531e4f
:10549800dbb2022b12d814460d4604f0d1f998b1ac
:1054a800574b00221a70574b1b78a34200f08b8091
:1054b800534b15221a704ff0ff3099e0504b1322ce
:1054c8001a704ff0ff3093e04d4b03221a704ff0e3
:1054d800ff308de04a4b01221a704ff0ff3087e011
:1054e800474b16221a704ff0ff3081e0464b0022de
:1054f8001a70464b1b78002b3dd0434b01221a7083
:105508003f4b14221a704ff0ff3071e03f4b0022de
:105518009a73a36c83b198473c4b5b681b687bb15b
:105528003a4a507b9847364b18700d2811d0374ba4
:1055380001229a73b8b90fe0314b17221a70ebe7c2
:105548002f4b17221a70314b01229a734ff0ff30fc
:1055580009e02e4b01229a732c4a012111702c4b21
:1055680019705a600020284b01221a70003018bfa9
:10557800012040423ce0254b5c70224a54685c6044
:1055880000221a73681d6b792f2b0bd053b101467b
:105598001e4a137b0133137311f8013f2f2b01d0df
:1055a800002bf6d1194b98609df8000058739b7b2f
:1055b800012babd0124b07221a70134b01221a7021
:1055c8004ff0ff3014e06946304605f07ffa0028b6
:1055d80080d09df80430a34201d0002b80d10a4b23
:1055e8001b78012b82d0064b07221a704ff0ff3030
:1055f80002b070bd024b13221a704ff0ff30704793
:105608004001002038010020000000204401002053
:04561800300100203d
:020000040000fa
:10561c002de9f04383b004460e46814601a904f0ff
:10562c00f9fd8046002859d194f81580b8f1000f87
:10563c0054d1e368b34205d2227d02f00202002a63
:10564c0008bf1e46a3690022a261002e46d0019a13
:10565c0057897f026bb1013b721eb2fbf7f2b3fbb1
:10566c00f7f18a4205d37a421340a361f61ae56931
:10567c0003e0a568002d35d0e56185b1be4258d850
:10568c00a3693344a361c6f30803002b70d02946e9
:10569c00019805f0c4fe002865d000eb5625a369df
:1056ac00e268934204d9e360227d42f04002227505
:1056bc00c3f3080393b1226aaa420fd094f91430b1
:1056cc00002b57db01232a4604f130010198407866
:1056dc0005f0e4fa804600285ed12562404603b00e
:1056ec00bde8f0830021204601f07cfa0546012834
:1056fc0004d0b0f1ff3f06d0a060bde74ff0020828
:10570c0084f81580eae74ff0010884f81580e5e786
:10571c002946484602f0b1f80546b5f1ff3f18d0ce
:10572c00012d1bd9019bdb69ab4217d9e561b7424f
:10573c00a6d2f61ba3693b44a361237d13f0020f91
:10574c00e6d02946484601f04dfa05460028e4d13a
:10575c00a5e74ff0010884f81580bfe74ff0020869
:10576c0084f81580bae74ff0020884f81580b5e785
:10577c001d4694e7012304f130010198407805f0af
:10578c0073f920b9237d03f07f0323759ae74ff05b
:10579c00010884f81580a1e74ff0010884f8158002
:0257ac009ce778
:020000040000fa
:0257ae00fee714
:020000040000fa
:1057b0002de9f0479df824600c4611b14ff0ff3100
:1057c000216062b3089951b31f469146804603f0a9
:1057d00073fd034618b3018858484ff4447202fb26
:1057e000010292f8be22012a19d1012e19d0da78cd
:1057f00012f0020f13d0089ad019504d4ff4447292
:1058000002fb0152d2f80023904208d84b484ff4d3
:10581000447202fb010292f80c23012a11d0bde868
:10582000f087da7812f0010ff9d0089ad019434db9
:105830004ff4447202fb0152d2f8f8229042e5d9ab
:10584000ede702464ff4447000fb012c4ff0000ed0
:105850008cf80ce3b3f800a000fb0a20d0f8a822d3
:105860009446d0f8a452002d5ed01078002850d075
:10587000243200200130a84256d0944624329cf8ad
:1058800000e0bef1000ff5d101228cf800200022cb
:10589000ccf82020294a4ff4447e0efb0a22b2f8ad
:1058a000a2e21b781b0243ea0e43c0b20343ccf8ca
:1058b0000c30b2f8a23201339bb24ff6ff72934222
:1058c00008bf01231d484ff4447202fb0a0aaaf8dc
:1058d000a232ccf80480ccf81090ccf81470089b5d
:1058e000ccf818308cf81d6001238cf8083014b106
:1058f000dcf80c3023604ff4447303fb01f30f4ad0
:105900001a44d2f8ac0230b170b1026a3ab9024618
:1059100008e07046b8e7c2f8acc205e01a46136a60
:10592000002bfbd1c2f820c0044b4ff4447202fba1
:105930000131012381f80c3371e700bf0010012011
:020000040000fa
:105940002de9f04f87b00190894600929a4605aa4a
:10595000012104f0e2fe002840f0a380ddf814806d
:10596000564b984540f29f8010264ff63e42b8fbba
:10597000f6f393421cd9760016f0ff06f7d14ff4e8
:1059800000720021504605f04ffeff264c4ba3fb52
:1059900008235b090293a9f104090af5e3740af5e7
:1059a000fb733f25dff81cb1cdf80ca09a464de003
:1059b0004ff400720021504605f036fee6e7a8ebf2
:1059c0000507002f53d02946204605f0edfd394646
:1059d000201d05f0e9fd009b04f8043cabfb05230a
:1059e000ea1a03eb52035b09b3fbf6f206fb123132
:1059f00004f8071c910821f03f01c3eb8313eb1a55
