:10000000E0DF0020750500007105000071050000AB
:10001000710500007105000071050000000000007E
:10002000000000000000000000000000710500005A
:100030007105000000000000710500006D05000062
:1000400071050000710500007105000071050000D8
:1000500071050000710500007105000071050000C8
:1000600071050000710500007105000071050000B8
:1000700071050000710500007105000071050000A8
:100080007105000071050000710500007105000098
:100090007105000071050000710500007105000088
:1000A0007105000071050000710500007105000078
:1000B0007105000071050000710500007105000068
:1000C0007105000071050000710500007105000058
:1000D0007105000071050000710500007105000048
:1000E0007105000071050000710500007105000038
:1000F000000000007105000071050000710500009E
:100100007105000071050000710500007105000017
:100110007105000071050000710500007105000007
:1001200071050000710500007105000071050000F7
:1001300071050000710500007105000071050000E7
:1001400071050000710500007105000071050000D7
:1001500071050000710500007105000071050000C7
:1001600071050000710500007105000071050000B7
:1001700071050000710500007105000071050000A7
:100180007105000071050000710500007105000097
:100190007105000071050000710500007105000087
:1001A0007105000071050000710500007105000077
:1001B0007105000071050000710500007105000067
:1001C0007105000071050000710500007105000057
:1001D0007105000071050000710500007105000047
:1001E0007105000071050000710500007105000037
:1001F0007105000071050000710500007105000027
:100200007105000071050000710500007105000016
:100210007105000071050000710500007105000006
:1002200071050000710500007105000071050000F6
:1002300071050000710500007105000071050000E6
:1002400071050000710500007105000071050000D6
:1002500071050000710500007105000071050000C6
:1002600071050000B0F5801F0FD2084B4AF2015112
:100270005A8AD207FCD5586199805A8AD207FCD590
:1002800000F50050B0F5801FF2D3704700400041E8
:10029000531E3AB1043851F8042B40F8042F013BA7
:1002A0005A1CF8D1704700BFF0B4194C23886FF383
:1002B00005132380638ADD07FCD54AF21553144DDC
:1002C000A3806B8ADC07FCD502B3114C4FF0FF37DB
:1002D0004AF2045C042A154628BF0425638ADB071A
:1002E000FCD500239D4286BF51F8236040F823606F
:1002F00040F823700133042BF4D1521B606101EBF1
:100300008501A4F804C000EB8500E3D1F0BC704780
:10031000004000412DE9F04F5C4B87B01A8842F451
:1003200080421A801A8842F400421A8000AF0546C3
:100330000E464FEA50380B1F021F01F1FC0402E089
:10034000A34200F0968053F8040F52F8041F88422D
:10035000F6D0DFF844A11AF80830002B4FD14C49F1
:1003600025F4FF5201EB481322F01F023A614FEAD5
:100370004812BB6020317A6013F8012B01EB481161
:100380008B4205D0002A49D113F8012B8B42F9D1B9
:10039000C7F814D0ADF5005DC7F80CD0002A48D1DD
:1003A0003A494B8AD807FCD54AF2015337484D6188
:1003B0008B80438AD907FCD501230AF80830E2B1C3
:1003C000D7E90329A2EB0908BA68324B541E7A68B0
:1003D0001A44924603E0A24509F580790DD014F83D
:1003E000013F002BF7D008EB090148464022FFF7F8
:1003F0005BFFA24509F58079F1D1D7F814D04022EE
:1004000031462846FFF750FF204A538ADB07FCD5C8
:100410001C37BD46BDE8F08F8B4204D05A1C8A427F
:1004200003F10203F8D1C7F814D0ADF5005DC7F8A9
:100430000CD0F968BB683A695C1E01F5005B0B469D
:10044000A2EB010903E003F580735B450FD014F8BC
:10045000012F002AF7D009EB030118464FF48072F0
:1004600001F02AFE034603F580735B45EFD10122BC
:1004700096E7074BC5F3042503EB48181C37012307
:1004800008F80530BD46BDE8F08F00BF00400041D0
:100490000C0C00202B0C00208C0B002030B42C49BD
:1004A0002C4A0B8843F004030B80137843F00103BC
:1004B00013705368DC07FCD440F60413254913621B
:1004C0004B685807C3F38002FAD4234B23491A77A9
:1004D0001A46996292F82C30C3F30010DB06F9D467
:1004E0001D4982F8200091F82C305D07FBD40B7F6A
:1004F000194A43F002030B7792F82C309C07FBD487
:10050000536A1549536291F82C301807FBD498238D
:10051000114A81F820301369D905FCD50D4A40F6FF
:10052000063313625368C3F380015B07FAD40C4AA5
:100530000C4B0D480124547140F2E735E0240722AA
:100540005D6080F8234099601A6030BC704700BF3E
:1005500000400041001C00400010004080BB01042E
:100560000008004010E000E000ED00E000F014B9E9
:10057000FEE700BF154A16498A4208B50ED0154B52
:1005800099420BD2013B5B1A23F00303043313445B
:1005900052F8040B41F8040B9A42F9D10E4A0F4B62
:1005A0009A420AD2013B9B1A23F0030304331344FB
:1005B000002142F8041B9342FBD1094B094A23F066
:1005C0007F03936000F022FFFEE700BFC425000018
:1005D00000000020D0010020D0010020E01F0020FA
:1005E0000000000000ED00E0F0B5DFF850E0BEF8DC
:1005F0000260DEB9AEF102070EF5FF7C41F2210583
:100600003246082312F4004F03F1FF3385EA420417
:100610009BB20ABF5200A2B292B2002BF2D127F8CD
:10062000022F06F580766745B6B2E9D180EA11203F
:100630003EF8103083EA012188B2F0BDD0010020DD
:10064000BFF34F8F0449054BCA6802F4E0621343BD
:10065000CB60BFF34F8FFEE700ED00E00400FA052A
:1006600070B51344157802F101028024416003261D
:10067000013EFDD12C4200D101600626013EFDD194
:100680000160641004D0E4B20226013EFDD1EDE722
:100690009A4200D2E6E770BD084B197841F6AA22CB
:1006A00041F6D103002908BF134600FB03F00128DF
:1006B00003D9012301339842FCD17047D0030020B5
:1006C00030B405461C24002008E06BB904B110B119
:1006D00030332B540130043C231D09D021FA04F39C
:1006E00003F00F03002AF0D0092BF1DD3733F0E7D8
:1006F00030BC704700B5104B4FF08074C3F8084110
:1007000083B00120C3F81441FFF7C6FFEFF3108355
:100710005BB972B60948214601AAFFF7A1FF62B68C
:10072000074B084A1A60FFF78BFF04482146002355
:1007300001AAFFF795FFF3E7008000411481004113
:10074000FCFF0320EF6926F00B4A13686BB970B504
:100750000A480B4D01682C6801314FF4FA660160BC
:1007600016600CB1A14203D270BD013B136070470B
:100770002B60FFF7BFFF00BFDC0300200C1C002034
:10078000101C002008B5024B024A1A60FFF758FF00
:10079000FCFF0320EF6916F030B41D491D4C0B68B7
:1007A0001D4D2268013301200B60287052B1A2F563
:1007B0007A718B4204BF1949C1F8980093421DD049
:1007C00030BC704713F0FF030FD1144B1449C3F82A
:1007D00098000B78A3F10A02D2B2F02A12D8114A7B
:1007E000127813440B7030BC70470D4A12789A424D
:1007F00004BF0A4BC3F8940030BC70470023236049
:1008000030BC7047074802785242D2B20270E8E723
:10081000D4030020D8030020D00300200080004132
:100820000100002000000020064B074A1B681168E9
:10083000994206D2054903F5FA6301201360C1F815
:1008400094007047D4030020D803002000800041AA
:10085000034B0122C3F88820C3F89820704700BFDB
:100860000080004110B50F4B4FF08074C3F8084171
:1008700082B00120C3F81441FFF70EFFEFF310839D
:1008800043B972B60848214601AAFFF7E9FE62B6ED
:1008900002B010BD04482146002301AAFFF7E0FE84
:1008A00002B010BD008000411481004130B43C4BC7
:1008B0003C4A93F858003C4940F0010083F8580046
:1008C00093F83C0000F0F00083F83C0093F83C0003
:1008D00040F0070083F83C0093F8590040F0010015
:1008E00083F8590093F83C0000F00F0083F83C00B7
:1008F00093F83C00402440F0700083F83C00C2F8BC
:10090000A8400B6943F480630B618B6943F00103DA
:100910008B6153685B07FCD44FF082421346117819
:1009200041F001011170997811F00101FBD11F4BC9
:100930001F481A684FF0824302F01F041D8D1F2CC0
:1009400008BF052464F38A151D85C2F344141D8D68
:100950001F2C08BF1D2464F304051D85C2F38222E9
:100960001C8D072A08BF032262F30E341C851A78F7
:1009700061F3C7121A701A7842F004021A705862B2
:100980001A8961F383021A811A8922F00102120482
:10099000120C1A8130BC4FF4807201F027BC00BFEA
:1009A00000800041001C00400008004084008000DE
:1009B000581C00202DE9F8434FF0824C0746DCF824
:1009C00024800E461546002B51D01C4663782278B1
:1009D000934238D3A278680108EB4513A2B9211DD0
:1009E00040F80810596862F30D015960596800F128
:1009F000824562F39B31596095F80421012142F050
:100A0000400285F80421A17000F1824999F807514C
:100A100015F0010514D05D68A378EDB2022B2570A6
:100A20002DD0B54228BF3546FFB1657038462A46FD
:100A3000211D01F041FB0122002389F80721A37049
:100A40002846BDE8F883D51AB54228BF3546002FA1
:100A5000F6D0211D194438462A4601F02DFB637853
:100A60002B4463702846BDE8F8836770E3E7074CC2
:100A700002EB021304EB8304FFF766FEA6E750F8CF
:100A800008102A46201D01F017FBCAE7581D002058
:100A900071B1F8B5054617461E460C462146284654
:100AA00033463A46FFF786FF241A0544F6D1F8BDCF
:100AB000704700BF70B54FF082440E46656A144619
:100AC00005EB4215DBB16B696FF3DF736B61286176
:100AD0006B6966F30D036B616B69600100F1824025
:100AE0006FF39B33022180226B6180F8071180F83D
:100AF000052190F807319B07FBD5304670BD6B6927
:100B0000C3F302730333012202FA03F38B4207D8C3
:100B10006B69221F18BF012262F3DF736B61D6E796
:100B2000054A0421442313FB0413134401463246AF
:100B3000184601F0C1FACAE7581D00200023FFF74C
:100B4000B9BF00BF2DE9F04F4FF0824499B0FFF7D5
:100B5000FBFDA38B13F008032AD0C64BC64E08201A
:100B6000802240211125A083A27284F8005184F8CC
:100B7000051184F804215A68032565F31E725A6032
:100B80005A6965F31E72BD4D5A611E601D615A6837
:100B9000BB4D60F39B325A60586800226FF30D0022
:100BA0005860104684F804112A7019B0BDE8F08F1F
:100BB00094F80721D60607D4B14B1878003818BF2F
:100BC000012019B0BDE8F08FAE4DDFF8CC8295F86A
:100BD0000BC06E7AA97A95F806A0EF79287AAA88D0
:100BE00040F2013E41EA0C214FF0100940EA062094
:100BF0004AEA072C4026724584F807910FFA80FBD9
:100C0000A8F800100FFA8CF984F804617CD016DC87
:100C100040F20115AA4277D0B2F5817F59DB40F24C
:100C2000A1239A4200F0D68027DDB2F5307F00F094
:100C3000EF804FF08243202283F80521BCE7B2F514
:100C4000106F00F02B8165DD42F2A110824200F0AE
:100C5000088149DD42F22120824255D04FF6A1633E
:100C60009A42E6D10023012928BF01211A4606A88D
:100C7000ADF81830FFF71EFF9EE740F2A1139A422D
:100C800000F0A880B2F5E07FD3D0B2F5817FD0D15B
:100C900010F00F03CDD000F008005CEA0002C8D1CC
:100CA0005B0103F182431BF0800F93F8062140F0B3
:100CB000A481D10627D5102283F8042193F80721B7
:100CC000920620D52021012283F8071183F8042100
:100CD00019E0822A00F0A88043DDB2F5807FA8D118
:100CE000202384F8053167E742F221018A420BD0C4
:100CF0009FDC40F621239A4205D022F4007240F690
:100D000021139A4295D100231A46194606A8FFF7E7
:100D1000D1FE51E7B2F5A06F70D03DDD40F28163A6
:100D20009A422CDCB2F5D06F83DBBCF5807F5CD0BF
:100D3000BCF5007F00F04681032F00F020810F2FCB
:100D400000F04981212F00F04F81222F7FF471AFF5
:100D50000023212928BF21211A464B48FFF7AAFE6C
:100D60002AE7803A012A3FF664AF022928BF022110
:100D70001A4606A8ADF81830FFF79CFE1CE7B2F53E
:100D8000086F7FF456AF0023012928BF01211A46BE
:100D90003B48FFF78FFE0FE740F202339A4214D12F
:100DA00010F00F033FF445AF00F008005CEA0002CA
:100DB0007FF43FAF5B011BF0800F03F1824314BF50
:100DC0002022102283F805219DE740F2A1339A42A8
:100DD0007FF42FAF0023082928BF08211A4606A850
:100DE000CDE90633FFF766FEE6E60023122928BFA9
:100DF00012211A462548FFF75DFEDDE61A46194620
:100E000006A8FFF757FE69F07F03DBB2A372D3E6B3
:100E100007287FF40EAF0023AA2928BFAA211A466B
:100E20001B48FFF747FEC7E605073FF559AF00F03F
:100E30000F00400100F182431BF0500F93F8064170
:100E40004FF0000314BFC4F34014C4F3001402298C
:100E500028BF02211A4606A8ADF81840FFF72AFE5F
:100E6000AAE6082928BF08211A460A48FFF722FEE9
:100E7000A2E600BF581C0020181C00205C1D0020AA
:100E8000E0030020141C0020DC230000C823000025
:100E9000F0000020E800002006040020764D0193B9
:100EA0001A46194606A885F80090FFF703FE734A14
:100EB0007348032184F84011556C302761F31E7587
:100EC000556484F84561106484F82071D2F834C008
:100ED0008025A0F1440E61F31E7CC2F834C084F872
:100EE0002451C2F830E084F86061D2F874C0019BEC
:100EF00063F31E7CC2F874C084F8645184F8A011B6
:100F0000D2F8A43000F1CC0C61F31E73C2F8A43007
:100F100084F8A561C2F8A0C084F88071D2F89470FA
:100F20004423883061F31E77C2F8947084F88451AA
:100F3000C2F8900084F8C03184F8C46184F8C451C8
:100F4000D2F8C40061F31E70C2F8C400D2F8D40015
:100F500061F31E70C2F8D40084F8E03184F8E461D3
:100F600084F8E451D2F8E43061F31E73C2F8E4303F
:100F7000D2F8F43061F31E73C2F8F4301CE6BAF113
:100F8000030F3FF656AE06AE30464822002101F070
:100F90002DF98DF81970BAF1000F40D1042240F2FA
:100FA00009438DF81820ADF81A30B8F800209DF8E4
:100FB00018100023914228BF114630461A46FFF709
:100FC00079FDF9E50023992928BF99211A462D4872
:100FD000FFF770FDF0E50023392928BF39211A46B3
:100FE0002948FFF767FDE7E50023092928BF092104
:100FF0001A462648FFF75EFDDEE594067FF583AED0
:10100000202283F8042193F8072150067FF57BAE58
:101010004021022283F8071183F8042173E61C4B58
:10102000DFF874900FCB02AC84E80F00002754F86F
:10103000043B09EB070019680122FFF741FBA642B8
:101040000744F4D1AA79134B53F82240002309F83E
:101050000730204601F034F9431C5B008DF818304E
:101060002278002AA1D02346314601F8022F13F836
:10107000012F002AF9D198E7E0030020581C002036
:10108000E41D00204000002004000020DC000020BF
:10109000B823000000240000E403002008B5FFF797
:1010A00005FC054B4FF0824200211970137843F084
:1010B0000203137008BD00BFE003002010B5002339
:1010C0000C460122FFF7F6FC204610BDFFF7F6BFE5
:1010D00070B504460D46FFF735FD00B970BD2946D1
:1010E00020460023BDE870400222FFF763BC00BF2A
:1010F00070B505460E46FFF725FD60B14EB134468A
:101100002146284600230222FFF754FC241A0544F6
:10111000F6D1304670BD0646304670BD002A0FDD60
:10112000024405E000F8013B824201F1010107D0D1
:101130000B78002BF6D1202300F8013B8242F7D137
:10114000704700BF2DE9F8434FF4007204460F4684
:101150000846002101F04AF8E4B9644E3D4606F124
:10116000300C34460FCC644528606960AA60EB609F
:10117000264605F11005F4D107CE3388AB815524FE
:10118000AA2328606960AA6087F8FE4187F8FF31CA
:10119000BDE8F8837E2C20D8631E3E2B88BFA4F1C7
:1011A0004003002B3ED0C3EBC352190207EB422091
:1011B0000B1F0830FC3140F6FF74B3F5805F07D297
:1011C0005A1DA34214BF92B24FF6FF7220F81320AB
:1011D00001339942F1D1BDE8F883822C2DD9A4F1D5
:1011E0008303012B73D9853C2102B1F5801FCFD237
:1011F0003F4A4048404B7C613A604FF480547860ED
:10120000C7F8FC314FF400503C4BB8604FF480728B
:10121000F960BC613A61FB6107F12000BDE8F84369
:1012200000F04ABFF0223A7007F109003A46FF2168
:1012300002F8011F8242FBD1B5E77F2CA8D14523DC
:101240002F493A4607F10B003BB1013102F8013B4F
:10125000824204D00B78002BF7D12023F6E7282315
:10126000284E2948FB7202252B376FF066094FF094
:101270004D08A7F10B0438B301F022F8E061658353
:101280003146224605E002F8013BBA4201F1010174
:1012900007D00B78002BF6D1202302F8013BBA428D
:1012A000F7D10135ADB2052D84F8109084F8118086
:1012B00084F8189084F8198006F1100607F12007C9
:1012C0003FF466AFF068D4E74FF40010D6E70D4A5C
:1012D00002EB0313DC68204600F0F2FF21460246D1
:1012E0003846BDE8F84300F0E7BE00BF1024000018
:1012F0005546320A57515D9E306FB10A6044115510
:101300003B240000EC2400001C25000030B50C46F6
:1013100039492068884283B001D003B030BD01F163
:101320001441606801F52C1101F602318842F4D1B4
:101330003249D4F8FC018842EFD1A168880403D572
:101340002F48E5698542E8D1CD0703D42169B1F57D
:10135000807F2CD0002B3DD0A16900293AD018689D
:10136000814208D041F26305A94201D8002841D04A
:101370004FF0FF311960616941F263008142CCD8BE
:1013800003EBD10501202C7A01F0070100FA01F1ED
:101390002142C8B228D059681B688B42BDD8002AA8
:1013A000BBD1184B184A1B681E331360B5E7E068C1
:1013B00010F0FF0FCED1A0F58041B1F57C2FC9D23E
:1013C00004F12001CDE90023FEF7A4FFDDE90023AD
:1013D000002BC1D1002AA0D10A4B0B4A1B6803F590
:1013E0009673136003B030BD04432C725968013109
:1013F0005960D1E71960BEE75546320A306FB10A2D
:10140000604411550C1C0020101C0020F8B55A4BEC
:101410009A68002A40F09180584B1A709968002908
:10142000FCD1574B1A6961F341021A61DA68570718
:10143000FCD51A695248C82161F317421A611A692A
:101440006FF383021A611A6942F002021A61C368DB
:10145000DE07FCD54A4BDA689507FCD4494B1A786D
:10146000D4076BD5464C6420FFF716F9E36899075B
:10147000F9D4434B1A696FF341021A61DA685207D3
:10148000FCD51A69012161F383021A611A6942F0DD
:1014900002021A61FFF7DCF944F204031C68A4F5A8
:1014A0008043B3F57C2F27D844F26822364B12686C
:1014B0009A424CD0334B1B7813F00102334B0DD1C1
:1014C00033491868884254D01868324A904204D090
:1014D00019604FF4FA70FFF7DFF82C4B00221A6006
:1014E0002D4A4FF480430121C2F894101A6882F308
:1014F0000888214A93602047284CFEF7CFFFBFF3AE
:101500005F8F62B6264F274DFFF7C8FD0A233B7059
:101510000126FFF717FB30B12B7803F0FF020BB960
:1015200022603E702E702B7863B92B78002BF0D19F
:10153000FF2300BF013BFCD1EBE7FEE71B78580718
:1015400097D58FE700F0D8FA00F0D6FAFAE70D4BFE
:101550001B78DB0704D40D4A0E4B12689A42A9D0BF
:101560000A4A0C49104B11601B680C4C3233236043
:10157000C3E70A4C1A60C0E700ED00E0002000401D
:1015800000180040000C00407CB0EE87FCFF0320F8
:10159000EF6916F0EF6926F000800041101C002072
:1015A00000000020080400200C1C002030B40A4A6F
:1015B0000A480B4B526842600022C3E90022C3E98B
:1015C0000222F0250A241A8202731D70DC7130BCDD
:1015D00004220D21FFF7B2BA280600209C0100204A
:1015E00048060020F8B58368ABB104460E4617469E
:1015F0000025A278E06833464FF40071FFF748FAFF
:101600003B4605F58050E1680122FFF77FFEA368A5
:101610000135AB42EDD8F8BD2DE9F047DFF8E09099
:10162000B9F8163099F8112099F8121082B05BBA07
:101630008DF807201FFA83F899F81320ADF80230CF
:1016400099F814308DF806108DF805208DF80430C7
:10165000B8F1000F32D0274FDFF8A8A0264D06467C
:10166000002412E0019839462044FFF76BFD042264
:101670004FF400713846FFF761FAAB680134A3F507
:101680000073A045AB602B4619D0FFF75BFA844688
:10169000334605224FF400713846BCF1000F25D0C7
:1016A000002EDFD1FFF7F4F901985346204432466B
:1016B0003946FFF72BFEFFF7B7F8DEE70E4B0F4C6E
:1016C000D9F804205A600C480022C4E90022C4E979
:1016D0000222F0260A2522821A730D210422267086
:1016E000E57102B0BDE8F047FFF728BA02B0BDE8E7
:1016F000F08700BF0C0400209C0100204806002059
:10170000280600205C06002030B4094B094C00225A
:101710001A60F02598704FF02060DA609A601A82A3
:10172000DA70998101221D705860227330BC7047B5
:10173000480600209C01002070B504220D46FFF7EA
:10174000FDF9854219D1144C144E154B7268A168ED
:1017500062600022C3E90022C3E90222491BF0268D
:101760000A251A821E70DD71A16022730A48BDE845
:10177000704004220D21FFF7E1B9074C074E00210C
:101780000420FFF7C1FF73686360204604220D2127
:10179000FFF7D4F9D9E700BF9C01002028060020FC
:1017A000480600201A4A002370B4C2E90033C2E997
:1017B0000233184C136138B3E17D02F108050823A8
:1017C000647C04F03F041C2C0CD03F2C0AD09942BE
:1017D00028BF194690B1023B1B02138070BC0C4815
:1017E000FFF7AABF0C33DBB240F61C260524994252
:1017F0002E80EC7028BF19460028ECD1013B1370F5
:1018000070BC0348FFF798BFE17C151D0423D7E7A0
:101810000C0600202806002070B513460C4615461D
:1018200006460A4600200121FFF7C4F800B970BD42
:101830002B46224630461F21FFF7BCF8012070BD21
:1018400080B50546ADF5247D72B6BFF35F8FDFF836
:10185000E8C0374E374F4FF08243002440F2FF324A
:101860009A8221469A830DA8CCF80840442200F0C1
:10187000BDFC21464FF406721EA800F0B7FC6A7842
:10188000AB786868069002F00F0203F00F030221A4
:101890006A70AB708DF836101EABE96807940122B0
:1018A00040F6FF708DF820400596FFF72FFD1EAA29
:1018B0000DA92846FFF796FE6A7805A801230D2199
:1018C000FFF7F8F8002400E00134A9780DAA05A874
:1018D000FFF7A2FF20B9BC42F6D9FEF70BFFF3E7F2
:1018E000DDE906019DF8233001960022CDE90201D1
:1018F0008DF810208BB12A2B16D1BDF82A305BBA97
:101900009CB2AC601EAA0DA92846ADF80230FFF7C4
:1019100069FE039BA3EB442303936A7801230D2103
:1019200001A8FFF7C7F8CDE7FEF72CFFF5E700BFEA
:1019300053425355A086010000ED00E070B5564CAF
:1019400084B000F093FB204600220521FFF764FFDE
:10195000002841D0514DE37BA668AE605A2B2FD8AA
:10196000DFE803F03C2E2E3F2E2E2E2E2E2E2E2E76
:101970002E2E2E2E2E2E472E2E2E2E2E2E2E54581E
:101980002E2E5B2E2E2E2E5E2E6F2E2E792E7D2E3F
:101990002E2E2E812E2E2E2E2E2E2E2E2E2E2E2E14
:1019A0002E2E2E2E2E2E2E2E2E2E2E2E2E2E2E2E57
:1019B0002E2E2E2E2E2E2E2E2E2E2E2E2E2E95000E
:1019C0004FF400510520FFF79FFE636833486B60BA
:1019D00004220D21FFF7B2F804B070BDFFF7E6FD59
:1019E000FAE7E17C2E48122928BF1221FFF7A4FE56
:1019F000F2E72C492C481822FFF790FBE17C2B489A
:101A0000242928BF2421FFF797FEE5E70020FFF7F0
:101A1000C9FEE1E7FFF7CAFDDEE7FFF7C7FDDBE739
:101A2000234B93E807000C2E01AB83E8070088BF27
:101A30000C2218464FF00C0188BFAA60FFF77CFE0D
:101A4000CAE71C481C4B036008214FF40033436075
:101A5000FFF772FEC0E70120FFF7DEFDBCE70020C4
:101A6000FFF7DAFDB8E70E4B62686A600022C3E94F
:101A70000022C3E90222F0260A241A822A730D21C9
:101A8000042206481E70DC71FFF758F8A4E7012015
:101A9000FFF788FEA0E700BF280600209C01002079
:101AA00048060020A8230000B4010020AC0100205B
:101AB000782500002006002000003E7F72B6BFF3AC
:101AC0005F8F4FF08243044940F2FF3200209A8238
:101AD0009A838860704700BF00ED00E000B583B0D6
:101AE000014601226846FEF7EBFD68460821FFF734
:101AF000E5FA03B05DF804FB2DE9F04FB249DFF8D9
:101B00000CA3DFF80C83B14FB14EB24DDFF8E0B259
:101B100000227A2383B00A608AF80030C146FFF7BA
:101B20000DFF40214846FFF7D3FA002408F8004093
:101B3000386018B9C6F800802860F0E7FEF774FE38
:101B40003968C6F800802C600029E8D023464C464E
:101B50002078FF280ED0232818D0A0F13003DAB265
:101B6000092A42D8DBF8002043EA0213CBF8003000
:101B7000013434602B68396801338B422B60CED23C
:101B800034682078FF28F5D02328E6D19AF8002081
:101B9000532A51D0522A73D04F2A46D0482A77D0A0
:101BA000572A7CD06F2A00F09280682A00F0B1801A
:101BB000772A00F0B980472A00F09080542A0DD08F
:101BC0004E2A0BD0562A00F0CE80582A00F0D18041
:101BD000592A00F0BA805A2A00F0D5807A220023D0
:101BE0008AF80020CBF80030C2E7A0F14103052BB2
:101BF00007D8DBF80030373840EA0310CBF8000094
:101C0000B6E7A0F16103052B07D8DBF800305738A1
:101C100040EA0310CBF80000AAE72C2849D00023A3
:101C20008AF80000CBF80030A2E7674BDBF8002011
:101C30001B681A703468D1E7DBF800000133CA1A58
:101C40002B60614B824228BF02461868624B611CC0
:101C50001C461A60316000F02FFA23682A685F4C36
:101C60003068DBF8001023701A44013A2A605A1ECB
:101C7000DBB210449942306023D800BF3468ADE72E
:101C8000514BDBF800101868FFF720FA3468A5E71D
:101C90004D4BDBF800201B681A8034689EE74A4BE6
:101CA0004F4A1B6893424AD0DBF800201A60346820
:101CB00094E7454ADBF8003013600023CBF800308E
:101CC00056E7C91A404B1868FFF712FAD5E73E4BA2
:101CD00001211868FFF7F2F934687FE7DBF800307C
:101CE000EFF308823F490A601A6882F30888D3F844
:101CF00004C0E0473B490B6883F308883A4B1B78E4
:101D0000002B3FF46BAF39480121FFF7D7F9346856
:101D100064E72D4B36481B6802211B88CBF8003046
:101D2000FFF7CCF9346859E7274B31481B68042189
:101D30001B68CBF80030FFF7C1F934684EE700208C
:101D4000FEF790FD204B1B68AEE7DBF80020002A71
:101D500060D11D4B274A1B68136027480321FFF7FA
:101D6000ADF934683AE725482A21FFF7A7F9346826
:101D700034E7DBF80000FEF775FA21480321FFF78E
:101D80009DF934682AE7104BDBF800401B686CB102
:101D90001A19002421461C4614F8010B0192FEF783
:101DA00023FC019A94420146F6D1044601211548CC
:101DB000FFF784F92046FFF791FE13480321FFF750
:101DC0007DF934680AE700BFD01F00207C1F002087
:101DD000801F0020881F0020DC1F0020781F0020AB
:101DE0000CED00E0D41F00207408002084250000C2
:101DF000D81F0020780800208C25000098250000BE
:101E0000882500009025000094250000841F0020F4
:101E10008C1F0020034B1968034B92081868FEF7CB
:101E200043FA9AE778080020D01F0020F8B5402137
:101E300090F84720044603460020FEF7BBFDD0B1D2
:101E400094F9043027790026B342267013DBB4F8E6
:101E5000443007F03F0504F1480018442A46611D4C
:101E600000F02AF9B4F8440017F0C00F284480B2FB
:101E700003D1A4F844000020F8BDA4F84460F8BDE4
:101E80002DE9F0430D4691B01E4600EB0108D7B294
:101E900043F03F093F2DA8EB050113DC002E08BFDE
:101EA00040262A462E430DF101008DF8006000F017
:101EB00003F93A46684601234021FEF7FBFD11B0C5
:101EC000BDE8F0838DF8009001F1300E0DF10104B2
:101ED00008684A688B68D1F80CC0C4F80CC010318F
:101EE000714520606260A36004F11004F0D10A68BB
:101EF0004B688868A060226063608B7BB1F80CC07F
:101F0000A3733A460123402168463F3DA4F80CC024
:101F1000FEF7D0FDBEE700BF2DE9F0470446FFF70E
:101F200085FF50B3A36CB4F84C20A4F84820013BC3
:101F30000022A4F84A20082B06D8DFE803F0667DCB
:101F400089200812234D5F000123A4F84A3094F839
:101F5000472004F148000023BDE8F0470421FFF7C3
:101F60008FBF04F1480094F8472000230421FFF7B5
:101F700087FF206DB0F5804F6DD2BDE8F087FEF78A
:101F800001FCE4E7D4E91463002BD8BF4FEA43090E
:101F900017DD04F14A0706F5807607EB43084FEAA0
:101FA0004309A6F5807500212878FEF71DFB013551
:101FB000B5420146F8D127F8020FB84506F58076FC
:101FC000EFD109F1040194F8472004F148000023FF
:101FD000BDE8F047FFF754BFD4E9141504F14C00F5
:101FE0002A46FEF755F9A90094F8472004F1480065
:101FF0000431BDE8F0470023FFF742BFD4E91402E3
:1020000004F15801FEF744F9A1E701254FF480706F
:102010004FF480514FF4A072C4E91512C4E9135073
:10202000104BE36594F8472004F148000023BDE815
:10203000F0471821FFF724BF0B4800F041F90A4987
:102040000546024604F14C0000F036F8291DBAE7B7
:10205000FEF750FB7BE704F15401BDE8F047FEF7C3
:1020600059B900BF604411551C25000008B5074848
:10207000062380F84730FFF74FFF0548072380F815
:102080004730BDE80840FFF747BF00BF7C0800208D
:10209000040A002000B5E3B00446FFF70FFD6846D0
:1020A0004FF4C472002100F0A1F88DF84740684653
:1020B000FFF732FFFBE700BF844641EA000313F05D
:1020C00003036DD1403A41D351F8043B40F8043B3F
:1020D00051F8043B40F8043B51F8043B40F8043B02
:1020E00051F8043B40F8043B51F8043B40F8043BF2
:1020F00051F8043B40F8043B51F8043B40F8043BE2
:1021000051F8043B40F8043B51F8043B40F8043BD1
:1021100051F8043B40F8043B51F8043B40F8043BC1
:1021200051F8043B40F8043B51F8043B40F8043BB1
:1021300051F8043B40F8043B51F8043B40F8043BA1
:1021400051F8043B40F8043B403ABDD2303211D341
:1021500051F8043B40F8043B51F8043B40F8043B81
:1021600051F8043B40F8043B51F8043B40F8043B71
:10217000103AEDD20C3205D351F8043B40F8043B41
:10218000043AF9D2043208D0D2071CBF11F8013B3F
:1021900000F8013B01D30B8803806046704700BF05
:1021A000082A13D38B078DD010F003038AD0C3F114
:1021B0000403D21ADB071CBF11F8013B00F8013BF6
:1021C00080D331F8023B20F8023B7BE7043AD9D3B5
:1021D000013A11F8013B00F8013BF9D20B7803708A
:1021E0004B7843708B78837060467047F0B48607F5
:1021F00046D0541E002A3CD0CAB2034602E014F175
:10220000FF3436D303F8012B9D07F8D1032C29D9CD
:10221000CDB245EA05250F2C45EA054533D9A4F191
:102220001006360903F1200707EB061703F1100229
:1022300042E9045542E902551032BA42F8D1721C03
:1022400014F00C0F03EB021204F00F0613D0331F2F
:1022500023F003030433134442F8045B9342FBD19D
:1022600006F003042CB1C9B21C4403F8011B9C42C4
:10227000FBD1F0BC704734461346002CF3D1F8E78D
:1022800014460346C2E71A462646E0E7000000006F
:10229000000000000000000000000000000000003E
:1022A000000000000000000000000000000000002E
:1022B000000000000000000000000000000000001E
:1022C00090F800F06DE9024520F007016FF0000C76
:1022D00010F0070491F820F040F049804FF000041E
:1022E0006FF00700D1E9002391F840F000F10800F9
:1022F00082FA4CF2A4FA8CF283FA4CF3A2FA8CF331
:102300004BBBD1E9022382FA4CF200F10800A4FA97
:102310008CF283FA4CF3A2FA8CF3E3B9D1E90423EB
:1023200082FA4CF200F10800A4FA8CF283FA4CF322
:10233000A2FA8CF37BB9D1E9062301F1200182FADC
:102340004CF200F10800A4FA8CF283FA4CF3A2FAE2
:102350008CF3002BC6D0002A04BF04301A4612BAF0
:10236000B2FA82F2FDE8024500EBD2007047D1E9F3
:10237000002304F00305C4F100004FEAC50514F082
:10238000040F91F840F00CFA05F562EA05021CBF53
:1023900063EA050362464FF00004A9E74D696372E2
:1023A0006F6368697000000053414D453534205417
:1023B0006865726D616C0000FC61800010608000D7
:1023C000146080001860800012011002EF020140CA
:1023D0009A23B50001420102030100000697FF099C
:1023E00001A101150026FF00750895400901810231
:1023F00095400901910295010901B102C000000058
:10240000000000009C230000A8230000E40300203B
:10241000EB3C905546322055463220000201010027
:102420000240007E3EF83F00010001000000000075
:102430000000000080002942004200453534584623
:102440004C49520000004641543136202020000003
:102450003C21646F63747970652068746D6C3E0A0A
:102460003C68746D6C3E3C626F64793E3C73637291
:102470006970743E0A6C6F636174696F6E2E726569
:10248000706C616365282268747470733A2F2F77BB
:1024900077772E6D6963726F636869702E636F6DF5
:1024A0002F646576656C6F706D656E74746F6F6C9C
:1024B000732F50726F6475637444657461696C73D3
:1024C0002F617473616D6535342D7870726F2229B8
:1024D0003B0A3C2F7363726970743E3C2F626F64D9
:1024E000793E3C2F68746D6C3E0A0000494E464FA1
:1024F0005F554632545854001C250000494E44454F
:102500005820202048544D0050240000435552527A
:10251000454E5420554632000000000055463220FA
:10252000426F6F746C6F616465722076332E313543
:102530002E302053464857524F0D0A4D6F64656C3C
:102540003A2053414D45353420546865726D616CB5
:102550000D0A426F6172642D49443A2053414D4542
:102560003534503230412D32303233303330322D29
:1025700076310D0A000000000000000800003E80D7
:102580000200020006000000580A0D00590A0D0062
:102590005A000000230A0D0076312E31205B417273
:1025A0006475696E6F3A58595A5D204D61722020EA
:1025B0003120323032332031373A35343A31350A2E
:0425C0000D0000000A
:1025C40001C80000050F3900021810050038B608CC
:1025D40034A909A0478BFDA0768815B665000101D2
:1025E400001C100500DF60DDD88945C74C9CD2650E
:1025F4009D9E648A9F00000306AA0002000000005A
:10260400090299000501008032080B000202020150
:102614000009040000010202010005240010010465
:10262400240206052406000105240103010705838D
:10263400030800FF09040100020A000000070581E5
:1026440002400000070502024000000904020002E3
:1026540008065000070584024000000705050240F3
:102664000000090403000203000000092100010026
:1026740001222100070586034000010705060340E7
:1026840000010904040002FF2A0100070587034032
:1026940000010705070340000100000009040300CE
:1026A400020300000300000000C201000000080053
:1026B4000A00000000000306AA000800020004004B
:1026C400A0001400030057494E5553420000000077
:1026D4000000000000008400040007002A004400F9
:1026E4006500760069006300650049006E007400AF
:1026F40065007200660061006300650047005500D4
:10270400490044007300000050007B00390032008F
:102714004300450036003400360032002D003900F5
:102724004300370037002D003400360046004500D2
:102734002D0039003300330042002D0033003100F6
:102744004300420039004300350042004200330098
:10275400420039007D000000000000005342535540
:1027640000000000000000000000000000800202E1
:102774002000000000000000000000000000000035
:10278400000000000000000000000000312E303086
:103FF0000000000095200000411800001C25000072
:00000001FF
